{
	"contracts/SimpleStorage.sol": {
		"SimpleStorage": {
			"abi": [
				{
					"inputs": [
						{
							"internalType": "string",
							"name": "_name",
							"type": "string"
						},
						{
							"internalType": "uint256",
							"name": "_favoriteNumber",
							"type": "uint256"
						}
					],
					"name": "addPerson",
					"outputs": [],
					"stateMutability": "nonpayable",
					"type": "function"
				},
				{
					"inputs": [
						{
							"internalType": "uint256",
							"name": "a",
							"type": "uint256"
						},
						{
							"internalType": "uint256",
							"name": "b",
							"type": "uint256"
						}
					],
					"name": "getValue",
					"outputs": [
						{
							"internalType": "uint256",
							"name": "",
							"type": "uint256"
						}
					],
					"stateMutability": "pure",
					"type": "function"
				},
				{
					"inputs": [
						{
							"internalType": "uint256",
							"name": "",
							"type": "uint256"
						}
					],
					"name": "listOfPeople",
					"outputs": [
						{
							"internalType": "uint256",
							"name": "favoriteNumber",
							"type": "uint256"
						},
						{
							"internalType": "string",
							"name": "name",
							"type": "string"
						}
					],
					"stateMutability": "view",
					"type": "function"
				},
				{
					"inputs": [
						{
							"internalType": "string",
							"name": "",
							"type": "string"
						}
					],
					"name": "nameToFavNumber",
					"outputs": [
						{
							"internalType": "uint256",
							"name": "",
							"type": "uint256"
						}
					],
					"stateMutability": "view",
					"type": "function"
				},
				{
					"inputs": [
						{
							"internalType": "uint256",
							"name": "",
							"type": "uint256"
						}
					],
					"name": "numToName",
					"outputs": [
						{
							"internalType": "string",
							"name": "",
							"type": "string"
						}
					],
					"stateMutability": "view",
					"type": "function"
				},
				{
					"inputs": [],
					"name": "reterive",
					"outputs": [
						{
							"internalType": "uint256",
							"name": "",
							"type": "uint256"
						}
					],
					"stateMutability": "view",
					"type": "function"
				},
				{
					"inputs": [
						{
							"internalType": "uint256",
							"name": "_favoriteNumber",
							"type": "uint256"
						}
					],
					"name": "store",
					"outputs": [],
					"stateMutability": "nonpayable",
					"type": "function"
				}
			],
			"devdoc": {
				"kind": "dev",
				"methods": {},
				"version": 1
			},
			"evm": {
				"assembly": "    /* \"contracts/SimpleStorage.sol\":57:1537  contract SimpleStorage {... */\n  mstore(0x40, 0x80)\n  callvalue\n  dup1\n  iszero\n  tag_1\n  jumpi\n  revert(0x00, 0x00)\ntag_1:\n  pop\n  dataSize(sub_0)\n  dup1\n  dataOffset(sub_0)\n  0x00\n  codecopy\n  0x00\n  return\nstop\n\nsub_0: assembly {\n        /* \"contracts/SimpleStorage.sol\":57:1537  contract SimpleStorage {... */\n      mstore(0x40, 0x80)\n      callvalue\n      dup1\n      iszero\n      tag_1\n      jumpi\n      revert(0x00, 0x00)\n    tag_1:\n      pop\n      jumpi(tag_2, lt(calldatasize, 0x04))\n      shr(0xe0, calldataload(0x00))\n      dup1\n      0x6a19e6de\n      gt\n      tag_10\n      jumpi\n      dup1\n      0x6a19e6de\n      eq\n      tag_6\n      jumpi\n      dup1\n      0x6f760f41\n      eq\n      tag_7\n      jumpi\n      dup1\n      0x9b4e2cdd\n      eq\n      tag_8\n      jumpi\n      dup1\n      0xaa3ff017\n      eq\n      tag_9\n      jumpi\n      jump(tag_2)\n    tag_10:\n      dup1\n      0x2ebce631\n      eq\n      tag_3\n      jumpi\n      dup1\n      0x43ec8f47\n      eq\n      tag_4\n      jumpi\n      dup1\n      0x6057361d\n      eq\n      tag_5\n      jumpi\n    tag_2:\n      revert(0x00, 0x00)\n        /* \"contracts/SimpleStorage.sol\":254:282  Person[] public listOfPeople */\n    tag_3:\n      tag_11\n      0x04\n      dup1\n      calldatasize\n      sub\n      dup2\n      add\n      swap1\n      tag_12\n      swap2\n      swap1\n      tag_13\n      jump\t// in\n    tag_12:\n      tag_14\n      jump\t// in\n    tag_11:\n      mload(0x40)\n      tag_15\n      swap3\n      swap2\n      swap1\n      tag_16\n      jump\t// in\n    tag_15:\n      mload(0x40)\n      dup1\n      swap2\n      sub\n      swap1\n      return\n        /* \"contracts/SimpleStorage.sol\":383:432  mapping(string => uint256) public nameToFavNumber */\n    tag_4:\n      tag_17\n      0x04\n      dup1\n      calldatasize\n      sub\n      dup2\n      add\n      swap1\n      tag_18\n      swap2\n      swap1\n      tag_19\n      jump\t// in\n    tag_18:\n      tag_20\n      jump\t// in\n    tag_17:\n      mload(0x40)\n      tag_21\n      swap2\n      swap1\n      tag_22\n      jump\t// in\n    tag_21:\n      mload(0x40)\n      dup1\n      swap2\n      sub\n      swap1\n      return\n        /* \"contracts/SimpleStorage.sol\":490:588  function store(uint256 _favoriteNumber) public {... */\n    tag_5:\n      tag_23\n      0x04\n      dup1\n      calldatasize\n      sub\n      dup2\n      add\n      swap1\n      tag_24\n      swap2\n      swap1\n      tag_13\n      jump\t// in\n    tag_24:\n      tag_25\n      jump\t// in\n    tag_23:\n      stop\n        /* \"contracts/SimpleStorage.sol\":918:1016  function getValue(uint256 a, uint256 b) public pure returns(uint256) {... */\n    tag_6:\n      tag_26\n      0x04\n      dup1\n      calldatasize\n      sub\n      dup2\n      add\n      swap1\n      tag_27\n      swap2\n      swap1\n      tag_28\n      jump\t// in\n    tag_27:\n      tag_29\n      jump\t// in\n    tag_26:\n      mload(0x40)\n      tag_30\n      swap2\n      swap1\n      tag_22\n      jump\t// in\n    tag_30:\n      mload(0x40)\n      dup1\n      swap2\n      sub\n      swap1\n      return\n        /* \"contracts/SimpleStorage.sol\":1303:1535  function addPerson(string memory _name, uint256 _favoriteNumber) public {... */\n    tag_7:\n      tag_31\n      0x04\n      dup1\n      calldatasize\n      sub\n      dup2\n      add\n      swap1\n      tag_32\n      swap2\n      swap1\n      tag_33\n      jump\t// in\n    tag_32:\n      tag_34\n      jump\t// in\n    tag_31:\n      stop\n        /* \"contracts/SimpleStorage.sol\":688:777  function reterive() public view returns(uint256) {... */\n    tag_8:\n      tag_35\n      tag_36\n      jump\t// in\n    tag_35:\n      mload(0x40)\n      tag_37\n      swap2\n      swap1\n      tag_22\n      jump\t// in\n    tag_37:\n      mload(0x40)\n      dup1\n      swap2\n      sub\n      swap1\n      return\n        /* \"contracts/SimpleStorage.sol\":439:483  mapping(uint256 => string) public  numToName */\n    tag_9:\n      tag_38\n      0x04\n      dup1\n      calldatasize\n      sub\n      dup2\n      add\n      swap1\n      tag_39\n      swap2\n      swap1\n      tag_13\n      jump\t// in\n    tag_39:\n      tag_40\n      jump\t// in\n    tag_38:\n      mload(0x40)\n      tag_41\n      swap2\n      swap1\n      tag_42\n      jump\t// in\n    tag_41:\n      mload(0x40)\n      dup1\n      swap2\n      sub\n      swap1\n      return\n        /* \"contracts/SimpleStorage.sol\":254:282  Person[] public listOfPeople */\n    tag_14:\n      0x02\n      dup2\n      dup2\n      sload\n      dup2\n      lt\n      tag_43\n      jumpi\n      0x00\n      dup1\n      revert\n    tag_43:\n      swap1\n      0x00\n      mstore\n      keccak256(0x00, 0x20)\n      swap1\n      0x02\n      mul\n      add\n      0x00\n      swap2\n      pop\n      swap1\n      pop\n      dup1\n      0x00\n      add\n      sload\n      swap1\n      dup1\n      0x01\n      add\n      dup1\n      sload\n      tag_45\n      swap1\n      tag_46\n      jump\t// in\n    tag_45:\n      dup1\n      0x1f\n      add\n      0x20\n      dup1\n      swap2\n      div\n      mul\n      0x20\n      add\n      mload(0x40)\n      swap1\n      dup2\n      add\n      0x40\n      mstore\n      dup1\n      swap3\n      swap2\n      swap1\n      dup2\n      dup2\n      mstore\n      0x20\n      add\n      dup3\n      dup1\n      sload\n      tag_47\n      swap1\n      tag_46\n      jump\t// in\n    tag_47:\n      dup1\n      iszero\n      tag_48\n      jumpi\n      dup1\n      0x1f\n      lt\n      tag_49\n      jumpi\n      0x0100\n      dup1\n      dup4\n      sload\n      div\n      mul\n      dup4\n      mstore\n      swap2\n      0x20\n      add\n      swap2\n      jump(tag_48)\n    tag_49:\n      dup3\n      add\n      swap2\n      swap1\n      0x00\n      mstore\n      keccak256(0x00, 0x20)\n      swap1\n    tag_50:\n      dup2\n      sload\n      dup2\n      mstore\n      swap1\n      0x01\n      add\n      swap1\n      0x20\n      add\n      dup1\n      dup4\n      gt\n      tag_50\n      jumpi\n      dup3\n      swap1\n      sub\n      0x1f\n      and\n      dup3\n      add\n      swap2\n    tag_48:\n      pop\n      pop\n      pop\n      pop\n      pop\n      swap1\n      pop\n      dup3\n      jump\t// out\n        /* \"contracts/SimpleStorage.sol\":383:432  mapping(string => uint256) public nameToFavNumber */\n    tag_20:\n      0x03\n      dup2\n      dup1\n      mload\n      0x20\n      dup2\n      add\n      dup3\n      add\n      dup1\n      mload\n      dup5\n      dup3\n      mstore\n      0x20\n      dup4\n      add\n      0x20\n      dup6\n      add\n      keccak256\n      dup2\n      dup4\n      mstore\n      dup1\n      swap6\n      pop\n      pop\n      pop\n      pop\n      pop\n      pop\n      0x00\n      swap2\n      pop\n      swap1\n      pop\n      sload\n      dup2\n      jump\t// out\n        /* \"contracts/SimpleStorage.sol\":490:588  function store(uint256 _favoriteNumber) public {... */\n    tag_25:\n        /* \"contracts/SimpleStorage.sol\":566:581  _favoriteNumber */\n      dup1\n        /* \"contracts/SimpleStorage.sol\":547:563  myFavoriteNumber */\n      0x00\n        /* \"contracts/SimpleStorage.sol\":547:581  myFavoriteNumber = _favoriteNumber */\n      dup2\n      swap1\n      sstore\n      pop\n        /* \"contracts/SimpleStorage.sol\":490:588  function store(uint256 _favoriteNumber) public {... */\n      pop\n      jump\t// out\n        /* \"contracts/SimpleStorage.sol\":918:1016  function getValue(uint256 a, uint256 b) public pure returns(uint256) {... */\n    tag_29:\n        /* \"contracts/SimpleStorage.sol\":978:985  uint256 */\n      0x00\n        /* \"contracts/SimpleStorage.sol\":1008:1009  b */\n      dup2\n        /* \"contracts/SimpleStorage.sol\":1004:1005  a */\n      dup4\n        /* \"contracts/SimpleStorage.sol\":1004:1009  a + b */\n      tag_53\n      swap2\n      swap1\n      tag_54\n      jump\t// in\n    tag_53:\n        /* \"contracts/SimpleStorage.sol\":997:1009  return a + b */\n      swap1\n      pop\n        /* \"contracts/SimpleStorage.sol\":918:1016  function getValue(uint256 a, uint256 b) public pure returns(uint256) {... */\n      swap3\n      swap2\n      pop\n      pop\n      jump\t// out\n        /* \"contracts/SimpleStorage.sol\":1303:1535  function addPerson(string memory _name, uint256 _favoriteNumber) public {... */\n    tag_34:\n        /* \"contracts/SimpleStorage.sol\":1385:1397  listOfPeople */\n      0x02\n        /* \"contracts/SimpleStorage.sol\":1403:1433  Person(_favoriteNumber, _name) */\n      mload(0x40)\n      dup1\n      0x40\n      add\n      0x40\n      mstore\n      dup1\n        /* \"contracts/SimpleStorage.sol\":1410:1425  _favoriteNumber */\n      dup4\n        /* \"contracts/SimpleStorage.sol\":1403:1433  Person(_favoriteNumber, _name) */\n      dup2\n      mstore\n      0x20\n      add\n        /* \"contracts/SimpleStorage.sol\":1427:1432  _name */\n      dup5\n        /* \"contracts/SimpleStorage.sol\":1403:1433  Person(_favoriteNumber, _name) */\n      dup2\n      mstore\n      pop\n        /* \"contracts/SimpleStorage.sol\":1385:1434  listOfPeople.push(Person(_favoriteNumber, _name)) */\n      swap1\n      dup1\n      0x01\n      dup2\n      sload\n      add\n      dup1\n      dup3\n      sstore\n      dup1\n      swap2\n      pop\n      pop\n      0x01\n      swap1\n      sub\n      swap1\n      0x00\n      mstore\n      keccak256(0x00, 0x20)\n      swap1\n      0x02\n      mul\n      add\n      0x00\n      swap1\n      swap2\n      swap1\n      swap2\n      swap1\n      swap2\n      pop\n      0x00\n      dup3\n      add\n      mload\n      dup2\n      0x00\n      add\n      sstore\n      0x20\n      dup3\n      add\n      mload\n      dup2\n      0x01\n      add\n      swap1\n      dup2\n      tag_57\n      swap2\n      swap1\n      tag_58\n      jump\t// in\n    tag_57:\n      pop\n      pop\n      pop\n        /* \"contracts/SimpleStorage.sol\":1469:1484  _favoriteNumber */\n      dup1\n        /* \"contracts/SimpleStorage.sol\":1444:1459  nameToFavNumber */\n      0x03\n        /* \"contracts/SimpleStorage.sol\":1460:1465  _name */\n      dup4\n        /* \"contracts/SimpleStorage.sol\":1444:1466  nameToFavNumber[_name] */\n      mload(0x40)\n      tag_59\n      swap2\n      swap1\n      tag_60\n      jump\t// in\n    tag_59:\n      swap1\n      dup2\n      mstore\n      0x20\n      add\n      mload(0x40)\n      dup1\n      swap2\n      sub\n      swap1\n      keccak256\n        /* \"contracts/SimpleStorage.sol\":1444:1484  nameToFavNumber[_name] = _favoriteNumber */\n      dup2\n      swap1\n      sstore\n      pop\n        /* \"contracts/SimpleStorage.sol\":1523:1528  _name */\n      dup2\n        /* \"contracts/SimpleStorage.sol\":1494:1503  numToName */\n      0x04\n        /* \"contracts/SimpleStorage.sol\":1494:1520  numToName[_favoriteNumber] */\n      0x00\n        /* \"contracts/SimpleStorage.sol\":1504:1519  _favoriteNumber */\n      dup4\n        /* \"contracts/SimpleStorage.sol\":1494:1520  numToName[_favoriteNumber] */\n      dup2\n      mstore\n      0x20\n      add\n      swap1\n      dup2\n      mstore\n      0x20\n      add\n      0x00\n      keccak256\n        /* \"contracts/SimpleStorage.sol\":1494:1528  numToName[_favoriteNumber] = _name */\n      swap1\n      dup2\n      tag_61\n      swap2\n      swap1\n      tag_58\n      jump\t// in\n    tag_61:\n      pop\n        /* \"contracts/SimpleStorage.sol\":1303:1535  function addPerson(string memory _name, uint256 _favoriteNumber) public {... */\n      pop\n      pop\n      jump\t// out\n        /* \"contracts/SimpleStorage.sol\":688:777  function reterive() public view returns(uint256) {... */\n    tag_36:\n        /* \"contracts/SimpleStorage.sol\":728:735  uint256 */\n      0x00\n        /* \"contracts/SimpleStorage.sol\":754:770  myFavoriteNumber */\n      sload(0x00)\n        /* \"contracts/SimpleStorage.sol\":747:770  return myFavoriteNumber */\n      swap1\n      pop\n        /* \"contracts/SimpleStorage.sol\":688:777  function reterive() public view returns(uint256) {... */\n      swap1\n      jump\t// out\n        /* \"contracts/SimpleStorage.sol\":439:483  mapping(uint256 => string) public  numToName */\n    tag_40:\n      mstore(0x20, 0x04)\n      dup1\n      0x00\n      mstore\n      keccak256(0x00, 0x40)\n      0x00\n      swap2\n      pop\n      swap1\n      pop\n      dup1\n      sload\n      tag_63\n      swap1\n      tag_46\n      jump\t// in\n    tag_63:\n      dup1\n      0x1f\n      add\n      0x20\n      dup1\n      swap2\n      div\n      mul\n      0x20\n      add\n      mload(0x40)\n      swap1\n      dup2\n      add\n      0x40\n      mstore\n      dup1\n      swap3\n      swap2\n      swap1\n      dup2\n      dup2\n      mstore\n      0x20\n      add\n      dup3\n      dup1\n      sload\n      tag_64\n      swap1\n      tag_46\n      jump\t// in\n    tag_64:\n      dup1\n      iszero\n      tag_65\n      jumpi\n      dup1\n      0x1f\n      lt\n      tag_66\n      jumpi\n      0x0100\n      dup1\n      dup4\n      sload\n      div\n      mul\n      dup4\n      mstore\n      swap2\n      0x20\n      add\n      swap2\n      jump(tag_65)\n    tag_66:\n      dup3\n      add\n      swap2\n      swap1\n      0x00\n      mstore\n      keccak256(0x00, 0x20)\n      swap1\n    tag_67:\n      dup2\n      sload\n      dup2\n      mstore\n      swap1\n      0x01\n      add\n      swap1\n      0x20\n      add\n      dup1\n      dup4\n      gt\n      tag_67\n      jumpi\n      dup3\n      swap1\n      sub\n      0x1f\n      and\n      dup3\n      add\n      swap2\n    tag_65:\n      pop\n      pop\n      pop\n      pop\n      pop\n      dup2\n      jump\t// out\n        /* \"#utility.yul\":7:82   */\n    tag_68:\n        /* \"#utility.yul\":40:46   */\n      0x00\n        /* \"#utility.yul\":73:75   */\n      0x40\n        /* \"#utility.yul\":67:76   */\n      mload\n        /* \"#utility.yul\":57:76   */\n      swap1\n      pop\n        /* \"#utility.yul\":7:82   */\n      swap1\n      jump\t// out\n        /* \"#utility.yul\":88:205   */\n    tag_69:\n        /* \"#utility.yul\":197:198   */\n      0x00\n        /* \"#utility.yul\":194:195   */\n      0x00\n        /* \"#utility.yul\":187:199   */\n      revert\n        /* \"#utility.yul\":211:328   */\n    tag_70:\n        /* \"#utility.yul\":320:321   */\n      0x00\n        /* \"#utility.yul\":317:318   */\n      0x00\n        /* \"#utility.yul\":310:322   */\n      revert\n        /* \"#utility.yul\":334:411   */\n    tag_71:\n        /* \"#utility.yul\":371:378   */\n      0x00\n        /* \"#utility.yul\":400:405   */\n      dup2\n        /* \"#utility.yul\":389:405   */\n      swap1\n      pop\n        /* \"#utility.yul\":334:411   */\n      swap2\n      swap1\n      pop\n      jump\t// out\n        /* \"#utility.yul\":417:539   */\n    tag_72:\n        /* \"#utility.yul\":490:514   */\n      tag_114\n        /* \"#utility.yul\":508:513   */\n      dup2\n        /* \"#utility.yul\":490:514   */\n      tag_71\n      jump\t// in\n    tag_114:\n        /* \"#utility.yul\":483:488   */\n      dup2\n        /* \"#utility.yul\":480:515   */\n      eq\n        /* \"#utility.yul\":470:533   */\n      tag_115\n      jumpi\n        /* \"#utility.yul\":529:530   */\n      0x00\n        /* \"#utility.yul\":526:527   */\n      0x00\n        /* \"#utility.yul\":519:531   */\n      revert\n        /* \"#utility.yul\":470:533   */\n    tag_115:\n        /* \"#utility.yul\":417:539   */\n      pop\n      jump\t// out\n        /* \"#utility.yul\":545:684   */\n    tag_73:\n        /* \"#utility.yul\":591:596   */\n      0x00\n        /* \"#utility.yul\":629:635   */\n      dup2\n        /* \"#utility.yul\":616:636   */\n      calldataload\n        /* \"#utility.yul\":607:636   */\n      swap1\n      pop\n        /* \"#utility.yul\":645:678   */\n      tag_117\n        /* \"#utility.yul\":672:677   */\n      dup2\n        /* \"#utility.yul\":645:678   */\n      tag_72\n      jump\t// in\n    tag_117:\n        /* \"#utility.yul\":545:684   */\n      swap3\n      swap2\n      pop\n      pop\n      jump\t// out\n        /* \"#utility.yul\":690:1019   */\n    tag_13:\n        /* \"#utility.yul\":749:755   */\n      0x00\n        /* \"#utility.yul\":798:800   */\n      0x20\n        /* \"#utility.yul\":786:795   */\n      dup3\n        /* \"#utility.yul\":777:784   */\n      dup5\n        /* \"#utility.yul\":773:796   */\n      sub\n        /* \"#utility.yul\":769:801   */\n      slt\n        /* \"#utility.yul\":766:885   */\n      iszero\n      tag_119\n      jumpi\n        /* \"#utility.yul\":804:883   */\n      tag_120\n      tag_69\n      jump\t// in\n    tag_120:\n        /* \"#utility.yul\":766:885   */\n    tag_119:\n        /* \"#utility.yul\":924:925   */\n      0x00\n        /* \"#utility.yul\":949:1002   */\n      tag_121\n        /* \"#utility.yul\":994:1001   */\n      dup5\n        /* \"#utility.yul\":985:991   */\n      dup3\n        /* \"#utility.yul\":974:983   */\n      dup6\n        /* \"#utility.yul\":970:992   */\n      add\n        /* \"#utility.yul\":949:1002   */\n      tag_73\n      jump\t// in\n    tag_121:\n        /* \"#utility.yul\":939:1002   */\n      swap2\n      pop\n        /* \"#utility.yul\":895:1012   */\n      pop\n        /* \"#utility.yul\":690:1019   */\n      swap3\n      swap2\n      pop\n      pop\n      jump\t// out\n        /* \"#utility.yul\":1025:1143   */\n    tag_74:\n        /* \"#utility.yul\":1112:1136   */\n      tag_123\n        /* \"#utility.yul\":1130:1135   */\n      dup2\n        /* \"#utility.yul\":1112:1136   */\n      tag_71\n      jump\t// in\n    tag_123:\n        /* \"#utility.yul\":1107:1110   */\n      dup3\n        /* \"#utility.yul\":1100:1137   */\n      mstore\n        /* \"#utility.yul\":1025:1143   */\n      pop\n      pop\n      jump\t// out\n        /* \"#utility.yul\":1149:1248   */\n    tag_75:\n        /* \"#utility.yul\":1201:1207   */\n      0x00\n        /* \"#utility.yul\":1235:1240   */\n      dup2\n        /* \"#utility.yul\":1229:1241   */\n      mload\n        /* \"#utility.yul\":1219:1241   */\n      swap1\n      pop\n        /* \"#utility.yul\":1149:1248   */\n      swap2\n      swap1\n      pop\n      jump\t// out\n        /* \"#utility.yul\":1254:1423   */\n    tag_76:\n        /* \"#utility.yul\":1338:1349   */\n      0x00\n        /* \"#utility.yul\":1372:1378   */\n      dup3\n        /* \"#utility.yul\":1367:1370   */\n      dup3\n        /* \"#utility.yul\":1360:1379   */\n      mstore\n        /* \"#utility.yul\":1412:1416   */\n      0x20\n        /* \"#utility.yul\":1407:1410   */\n      dup3\n        /* \"#utility.yul\":1403:1417   */\n      add\n        /* \"#utility.yul\":1388:1417   */\n      swap1\n      pop\n        /* \"#utility.yul\":1254:1423   */\n      swap3\n      swap2\n      pop\n      pop\n      jump\t// out\n        /* \"#utility.yul\":1429:1568   */\n    tag_77:\n        /* \"#utility.yul\":1518:1524   */\n      dup3\n        /* \"#utility.yul\":1513:1516   */\n      dup2\n        /* \"#utility.yul\":1508:1511   */\n      dup4\n        /* \"#utility.yul\":1502:1525   */\n      mcopy\n        /* \"#utility.yul\":1559:1560   */\n      0x00\n        /* \"#utility.yul\":1550:1556   */\n      dup4\n        /* \"#utility.yul\":1545:1548   */\n      dup4\n        /* \"#utility.yul\":1541:1557   */\n      add\n        /* \"#utility.yul\":1534:1561   */\n      mstore\n        /* \"#utility.yul\":1429:1568   */\n      pop\n      pop\n      pop\n      jump\t// out\n        /* \"#utility.yul\":1574:1676   */\n    tag_78:\n        /* \"#utility.yul\":1615:1621   */\n      0x00\n        /* \"#utility.yul\":1666:1668   */\n      0x1f\n        /* \"#utility.yul\":1662:1669   */\n      not\n        /* \"#utility.yul\":1657:1659   */\n      0x1f\n        /* \"#utility.yul\":1650:1655   */\n      dup4\n        /* \"#utility.yul\":1646:1660   */\n      add\n        /* \"#utility.yul\":1642:1670   */\n      and\n        /* \"#utility.yul\":1632:1670   */\n      swap1\n      pop\n        /* \"#utility.yul\":1574:1676   */\n      swap2\n      swap1\n      pop\n      jump\t// out\n        /* \"#utility.yul\":1682:2059   */\n    tag_79:\n        /* \"#utility.yul\":1770:1773   */\n      0x00\n        /* \"#utility.yul\":1798:1837   */\n      tag_129\n        /* \"#utility.yul\":1831:1836   */\n      dup3\n        /* \"#utility.yul\":1798:1837   */\n      tag_75\n      jump\t// in\n    tag_129:\n        /* \"#utility.yul\":1853:1924   */\n      tag_130\n        /* \"#utility.yul\":1917:1923   */\n      dup2\n        /* \"#utility.yul\":1912:1915   */\n      dup6\n        /* \"#utility.yul\":1853:1924   */\n      tag_76\n      jump\t// in\n    tag_130:\n        /* \"#utility.yul\":1846:1924   */\n      swap4\n      pop\n        /* \"#utility.yul\":1933:1998   */\n      tag_131\n        /* \"#utility.yul\":1991:1997   */\n      dup2\n        /* \"#utility.yul\":1986:1989   */\n      dup6\n        /* \"#utility.yul\":1979:1983   */\n      0x20\n        /* \"#utility.yul\":1972:1977   */\n      dup7\n        /* \"#utility.yul\":1968:1984   */\n      add\n        /* \"#utility.yul\":1933:1998   */\n      tag_77\n      jump\t// in\n    tag_131:\n        /* \"#utility.yul\":2023:2052   */\n      tag_132\n        /* \"#utility.yul\":2045:2051   */\n      dup2\n        /* \"#utility.yul\":2023:2052   */\n      tag_78\n      jump\t// in\n    tag_132:\n        /* \"#utility.yul\":2018:2021   */\n      dup5\n        /* \"#utility.yul\":2014:2053   */\n      add\n        /* \"#utility.yul\":2007:2053   */\n      swap2\n      pop\n        /* \"#utility.yul\":1774:2059   */\n      pop\n        /* \"#utility.yul\":1682:2059   */\n      swap3\n      swap2\n      pop\n      pop\n      jump\t// out\n        /* \"#utility.yul\":2065:2488   */\n    tag_16:\n        /* \"#utility.yul\":2206:2210   */\n      0x00\n        /* \"#utility.yul\":2244:2246   */\n      0x40\n        /* \"#utility.yul\":2233:2242   */\n      dup3\n        /* \"#utility.yul\":2229:2247   */\n      add\n        /* \"#utility.yul\":2221:2247   */\n      swap1\n      pop\n        /* \"#utility.yul\":2257:2328   */\n      tag_134\n        /* \"#utility.yul\":2325:2326   */\n      0x00\n        /* \"#utility.yul\":2314:2323   */\n      dup4\n        /* \"#utility.yul\":2310:2327   */\n      add\n        /* \"#utility.yul\":2301:2307   */\n      dup6\n        /* \"#utility.yul\":2257:2328   */\n      tag_74\n      jump\t// in\n    tag_134:\n        /* \"#utility.yul\":2375:2384   */\n      dup2\n        /* \"#utility.yul\":2369:2373   */\n      dup2\n        /* \"#utility.yul\":2365:2385   */\n      sub\n        /* \"#utility.yul\":2360:2362   */\n      0x20\n        /* \"#utility.yul\":2349:2358   */\n      dup4\n        /* \"#utility.yul\":2345:2363   */\n      add\n        /* \"#utility.yul\":2338:2386   */\n      mstore\n        /* \"#utility.yul\":2403:2481   */\n      tag_135\n        /* \"#utility.yul\":2476:2480   */\n      dup2\n        /* \"#utility.yul\":2467:2473   */\n      dup5\n        /* \"#utility.yul\":2403:2481   */\n      tag_79\n      jump\t// in\n    tag_135:\n        /* \"#utility.yul\":2395:2481   */\n      swap1\n      pop\n        /* \"#utility.yul\":2065:2488   */\n      swap4\n      swap3\n      pop\n      pop\n      pop\n      jump\t// out\n        /* \"#utility.yul\":2494:2611   */\n    tag_80:\n        /* \"#utility.yul\":2603:2604   */\n      0x00\n        /* \"#utility.yul\":2600:2601   */\n      0x00\n        /* \"#utility.yul\":2593:2605   */\n      revert\n        /* \"#utility.yul\":2617:2734   */\n    tag_81:\n        /* \"#utility.yul\":2726:2727   */\n      0x00\n        /* \"#utility.yul\":2723:2724   */\n      0x00\n        /* \"#utility.yul\":2716:2728   */\n      revert\n        /* \"#utility.yul\":2740:2920   */\n    tag_82:\n        /* \"#utility.yul\":2788:2865   */\n      0x4e487b7100000000000000000000000000000000000000000000000000000000\n        /* \"#utility.yul\":2785:2786   */\n      0x00\n        /* \"#utility.yul\":2778:2866   */\n      mstore\n        /* \"#utility.yul\":2885:2889   */\n      0x41\n        /* \"#utility.yul\":2882:2883   */\n      0x04\n        /* \"#utility.yul\":2875:2890   */\n      mstore\n        /* \"#utility.yul\":2909:2913   */\n      0x24\n        /* \"#utility.yul\":2906:2907   */\n      0x00\n        /* \"#utility.yul\":2899:2914   */\n      revert\n        /* \"#utility.yul\":2926:3207   */\n    tag_83:\n        /* \"#utility.yul\":3009:3036   */\n      tag_140\n        /* \"#utility.yul\":3031:3035   */\n      dup3\n        /* \"#utility.yul\":3009:3036   */\n      tag_78\n      jump\t// in\n    tag_140:\n        /* \"#utility.yul\":3001:3007   */\n      dup2\n        /* \"#utility.yul\":2997:3037   */\n      add\n        /* \"#utility.yul\":3139:3145   */\n      dup2\n        /* \"#utility.yul\":3127:3137   */\n      dup2\n        /* \"#utility.yul\":3124:3146   */\n      lt\n        /* \"#utility.yul\":3103:3121   */\n      0xffffffffffffffff\n        /* \"#utility.yul\":3091:3101   */\n      dup3\n        /* \"#utility.yul\":3088:3122   */\n      gt\n        /* \"#utility.yul\":3085:3147   */\n      or\n        /* \"#utility.yul\":3082:3170   */\n      iszero\n      tag_141\n      jumpi\n        /* \"#utility.yul\":3150:3168   */\n      tag_142\n      tag_82\n      jump\t// in\n    tag_142:\n        /* \"#utility.yul\":3082:3170   */\n    tag_141:\n        /* \"#utility.yul\":3190:3200   */\n      dup1\n        /* \"#utility.yul\":3186:3188   */\n      0x40\n        /* \"#utility.yul\":3179:3201   */\n      mstore\n        /* \"#utility.yul\":2969:3207   */\n      pop\n        /* \"#utility.yul\":2926:3207   */\n      pop\n      pop\n      jump\t// out\n        /* \"#utility.yul\":3213:3342   */\n    tag_84:\n        /* \"#utility.yul\":3247:3253   */\n      0x00\n        /* \"#utility.yul\":3274:3294   */\n      tag_144\n      tag_68\n      jump\t// in\n    tag_144:\n        /* \"#utility.yul\":3264:3294   */\n      swap1\n      pop\n        /* \"#utility.yul\":3303:3336   */\n      tag_145\n        /* \"#utility.yul\":3331:3335   */\n      dup3\n        /* \"#utility.yul\":3323:3329   */\n      dup3\n        /* \"#utility.yul\":3303:3336   */\n      tag_83\n      jump\t// in\n    tag_145:\n        /* \"#utility.yul\":3213:3342   */\n      swap2\n      swap1\n      pop\n      jump\t// out\n        /* \"#utility.yul\":3348:3656   */\n    tag_85:\n        /* \"#utility.yul\":3410:3414   */\n      0x00\n        /* \"#utility.yul\":3500:3518   */\n      0xffffffffffffffff\n        /* \"#utility.yul\":3492:3498   */\n      dup3\n        /* \"#utility.yul\":3489:3519   */\n      gt\n        /* \"#utility.yul\":3486:3542   */\n      iszero\n      tag_147\n      jumpi\n        /* \"#utility.yul\":3522:3540   */\n      tag_148\n      tag_82\n      jump\t// in\n    tag_148:\n        /* \"#utility.yul\":3486:3542   */\n    tag_147:\n        /* \"#utility.yul\":3560:3589   */\n      tag_149\n        /* \"#utility.yul\":3582:3588   */\n      dup3\n        /* \"#utility.yul\":3560:3589   */\n      tag_78\n      jump\t// in\n    tag_149:\n        /* \"#utility.yul\":3552:3589   */\n      swap1\n      pop\n        /* \"#utility.yul\":3644:3648   */\n      0x20\n        /* \"#utility.yul\":3638:3642   */\n      dup2\n        /* \"#utility.yul\":3634:3649   */\n      add\n        /* \"#utility.yul\":3626:3649   */\n      swap1\n      pop\n        /* \"#utility.yul\":3348:3656   */\n      swap2\n      swap1\n      pop\n      jump\t// out\n        /* \"#utility.yul\":3662:3810   */\n    tag_86:\n        /* \"#utility.yul\":3760:3766   */\n      dup3\n        /* \"#utility.yul\":3755:3758   */\n      dup2\n        /* \"#utility.yul\":3750:3753   */\n      dup4\n        /* \"#utility.yul\":3737:3767   */\n      calldatacopy\n        /* \"#utility.yul\":3801:3802   */\n      0x00\n        /* \"#utility.yul\":3792:3798   */\n      dup4\n        /* \"#utility.yul\":3787:3790   */\n      dup4\n        /* \"#utility.yul\":3783:3799   */\n      add\n        /* \"#utility.yul\":3776:3803   */\n      mstore\n        /* \"#utility.yul\":3662:3810   */\n      pop\n      pop\n      pop\n      jump\t// out\n        /* \"#utility.yul\":3816:4241   */\n    tag_87:\n        /* \"#utility.yul\":3894:3899   */\n      0x00\n        /* \"#utility.yul\":3919:3985   */\n      tag_152\n        /* \"#utility.yul\":3935:3984   */\n      tag_153\n        /* \"#utility.yul\":3977:3983   */\n      dup5\n        /* \"#utility.yul\":3935:3984   */\n      tag_85\n      jump\t// in\n    tag_153:\n        /* \"#utility.yul\":3919:3985   */\n      tag_84\n      jump\t// in\n    tag_152:\n        /* \"#utility.yul\":3910:3985   */\n      swap1\n      pop\n        /* \"#utility.yul\":4008:4014   */\n      dup3\n        /* \"#utility.yul\":4001:4006   */\n      dup2\n        /* \"#utility.yul\":3994:4015   */\n      mstore\n        /* \"#utility.yul\":4046:4050   */\n      0x20\n        /* \"#utility.yul\":4039:4044   */\n      dup2\n        /* \"#utility.yul\":4035:4051   */\n      add\n        /* \"#utility.yul\":4084:4087   */\n      dup5\n        /* \"#utility.yul\":4075:4081   */\n      dup5\n        /* \"#utility.yul\":4070:4073   */\n      dup5\n        /* \"#utility.yul\":4066:4082   */\n      add\n        /* \"#utility.yul\":4063:4088   */\n      gt\n        /* \"#utility.yul\":4060:4172   */\n      iszero\n      tag_154\n      jumpi\n        /* \"#utility.yul\":4091:4170   */\n      tag_155\n      tag_81\n      jump\t// in\n    tag_155:\n        /* \"#utility.yul\":4060:4172   */\n    tag_154:\n        /* \"#utility.yul\":4181:4235   */\n      tag_156\n        /* \"#utility.yul\":4228:4234   */\n      dup5\n        /* \"#utility.yul\":4223:4226   */\n      dup3\n        /* \"#utility.yul\":4218:4221   */\n      dup6\n        /* \"#utility.yul\":4181:4235   */\n      tag_86\n      jump\t// in\n    tag_156:\n        /* \"#utility.yul\":3900:4241   */\n      pop\n        /* \"#utility.yul\":3816:4241   */\n      swap4\n      swap3\n      pop\n      pop\n      pop\n      jump\t// out\n        /* \"#utility.yul\":4261:4601   */\n    tag_88:\n        /* \"#utility.yul\":4317:4322   */\n      0x00\n        /* \"#utility.yul\":4366:4369   */\n      dup3\n        /* \"#utility.yul\":4359:4363   */\n      0x1f\n        /* \"#utility.yul\":4351:4357   */\n      dup4\n        /* \"#utility.yul\":4347:4364   */\n      add\n        /* \"#utility.yul\":4343:4370   */\n      slt\n        /* \"#utility.yul\":4333:4455   */\n      tag_158\n      jumpi\n        /* \"#utility.yul\":4374:4453   */\n      tag_159\n      tag_80\n      jump\t// in\n    tag_159:\n        /* \"#utility.yul\":4333:4455   */\n    tag_158:\n        /* \"#utility.yul\":4491:4497   */\n      dup2\n        /* \"#utility.yul\":4478:4498   */\n      calldataload\n        /* \"#utility.yul\":4516:4595   */\n      tag_160\n        /* \"#utility.yul\":4591:4594   */\n      dup5\n        /* \"#utility.yul\":4583:4589   */\n      dup3\n        /* \"#utility.yul\":4576:4580   */\n      0x20\n        /* \"#utility.yul\":4568:4574   */\n      dup7\n        /* \"#utility.yul\":4564:4581   */\n      add\n        /* \"#utility.yul\":4516:4595   */\n      tag_87\n      jump\t// in\n    tag_160:\n        /* \"#utility.yul\":4507:4595   */\n      swap2\n      pop\n        /* \"#utility.yul\":4323:4601   */\n      pop\n        /* \"#utility.yul\":4261:4601   */\n      swap3\n      swap2\n      pop\n      pop\n      jump\t// out\n        /* \"#utility.yul\":4607:5116   */\n    tag_19:\n        /* \"#utility.yul\":4676:4682   */\n      0x00\n        /* \"#utility.yul\":4725:4727   */\n      0x20\n        /* \"#utility.yul\":4713:4722   */\n      dup3\n        /* \"#utility.yul\":4704:4711   */\n      dup5\n        /* \"#utility.yul\":4700:4723   */\n      sub\n        /* \"#utility.yul\":4696:4728   */\n      slt\n        /* \"#utility.yul\":4693:4812   */\n      iszero\n      tag_162\n      jumpi\n        /* \"#utility.yul\":4731:4810   */\n      tag_163\n      tag_69\n      jump\t// in\n    tag_163:\n        /* \"#utility.yul\":4693:4812   */\n    tag_162:\n        /* \"#utility.yul\":4879:4880   */\n      0x00\n        /* \"#utility.yul\":4868:4877   */\n      dup3\n        /* \"#utility.yul\":4864:4881   */\n      add\n        /* \"#utility.yul\":4851:4882   */\n      calldataload\n        /* \"#utility.yul\":4909:4927   */\n      0xffffffffffffffff\n        /* \"#utility.yul\":4901:4907   */\n      dup2\n        /* \"#utility.yul\":4898:4928   */\n      gt\n        /* \"#utility.yul\":4895:5012   */\n      iszero\n      tag_164\n      jumpi\n        /* \"#utility.yul\":4931:5010   */\n      tag_165\n      tag_70\n      jump\t// in\n    tag_165:\n        /* \"#utility.yul\":4895:5012   */\n    tag_164:\n        /* \"#utility.yul\":5036:5099   */\n      tag_166\n        /* \"#utility.yul\":5091:5098   */\n      dup5\n        /* \"#utility.yul\":5082:5088   */\n      dup3\n        /* \"#utility.yul\":5071:5080   */\n      dup6\n        /* \"#utility.yul\":5067:5089   */\n      add\n        /* \"#utility.yul\":5036:5099   */\n      tag_88\n      jump\t// in\n    tag_166:\n        /* \"#utility.yul\":5026:5099   */\n      swap2\n      pop\n        /* \"#utility.yul\":4822:5109   */\n      pop\n        /* \"#utility.yul\":4607:5116   */\n      swap3\n      swap2\n      pop\n      pop\n      jump\t// out\n        /* \"#utility.yul\":5122:5344   */\n    tag_22:\n        /* \"#utility.yul\":5215:5219   */\n      0x00\n        /* \"#utility.yul\":5253:5255   */\n      0x20\n        /* \"#utility.yul\":5242:5251   */\n      dup3\n        /* \"#utility.yul\":5238:5256   */\n      add\n        /* \"#utility.yul\":5230:5256   */\n      swap1\n      pop\n        /* \"#utility.yul\":5266:5337   */\n      tag_168\n        /* \"#utility.yul\":5334:5335   */\n      0x00\n        /* \"#utility.yul\":5323:5332   */\n      dup4\n        /* \"#utility.yul\":5319:5336   */\n      add\n        /* \"#utility.yul\":5310:5316   */\n      dup5\n        /* \"#utility.yul\":5266:5337   */\n      tag_74\n      jump\t// in\n    tag_168:\n        /* \"#utility.yul\":5122:5344   */\n      swap3\n      swap2\n      pop\n      pop\n      jump\t// out\n        /* \"#utility.yul\":5350:5824   */\n    tag_28:\n        /* \"#utility.yul\":5418:5424   */\n      0x00\n        /* \"#utility.yul\":5426:5432   */\n      0x00\n        /* \"#utility.yul\":5475:5477   */\n      0x40\n        /* \"#utility.yul\":5463:5472   */\n      dup4\n        /* \"#utility.yul\":5454:5461   */\n      dup6\n        /* \"#utility.yul\":5450:5473   */\n      sub\n        /* \"#utility.yul\":5446:5478   */\n      slt\n        /* \"#utility.yul\":5443:5562   */\n      iszero\n      tag_170\n      jumpi\n        /* \"#utility.yul\":5481:5560   */\n      tag_171\n      tag_69\n      jump\t// in\n    tag_171:\n        /* \"#utility.yul\":5443:5562   */\n    tag_170:\n        /* \"#utility.yul\":5601:5602   */\n      0x00\n        /* \"#utility.yul\":5626:5679   */\n      tag_172\n        /* \"#utility.yul\":5671:5678   */\n      dup6\n        /* \"#utility.yul\":5662:5668   */\n      dup3\n        /* \"#utility.yul\":5651:5660   */\n      dup7\n        /* \"#utility.yul\":5647:5669   */\n      add\n        /* \"#utility.yul\":5626:5679   */\n      tag_73\n      jump\t// in\n    tag_172:\n        /* \"#utility.yul\":5616:5679   */\n      swap3\n      pop\n        /* \"#utility.yul\":5572:5689   */\n      pop\n        /* \"#utility.yul\":5728:5730   */\n      0x20\n        /* \"#utility.yul\":5754:5807   */\n      tag_173\n        /* \"#utility.yul\":5799:5806   */\n      dup6\n        /* \"#utility.yul\":5790:5796   */\n      dup3\n        /* \"#utility.yul\":5779:5788   */\n      dup7\n        /* \"#utility.yul\":5775:5797   */\n      add\n        /* \"#utility.yul\":5754:5807   */\n      tag_73\n      jump\t// in\n    tag_173:\n        /* \"#utility.yul\":5744:5807   */\n      swap2\n      pop\n        /* \"#utility.yul\":5699:5817   */\n      pop\n        /* \"#utility.yul\":5350:5824   */\n      swap3\n      pop\n      swap3\n      swap1\n      pop\n      jump\t// out\n        /* \"#utility.yul\":5830:6484   */\n    tag_33:\n        /* \"#utility.yul\":5908:5914   */\n      0x00\n        /* \"#utility.yul\":5916:5922   */\n      0x00\n        /* \"#utility.yul\":5965:5967   */\n      0x40\n        /* \"#utility.yul\":5953:5962   */\n      dup4\n        /* \"#utility.yul\":5944:5951   */\n      dup6\n        /* \"#utility.yul\":5940:5963   */\n      sub\n        /* \"#utility.yul\":5936:5968   */\n      slt\n        /* \"#utility.yul\":5933:6052   */\n      iszero\n      tag_175\n      jumpi\n        /* \"#utility.yul\":5971:6050   */\n      tag_176\n      tag_69\n      jump\t// in\n    tag_176:\n        /* \"#utility.yul\":5933:6052   */\n    tag_175:\n        /* \"#utility.yul\":6119:6120   */\n      0x00\n        /* \"#utility.yul\":6108:6117   */\n      dup4\n        /* \"#utility.yul\":6104:6121   */\n      add\n        /* \"#utility.yul\":6091:6122   */\n      calldataload\n        /* \"#utility.yul\":6149:6167   */\n      0xffffffffffffffff\n        /* \"#utility.yul\":6141:6147   */\n      dup2\n        /* \"#utility.yul\":6138:6168   */\n      gt\n        /* \"#utility.yul\":6135:6252   */\n      iszero\n      tag_177\n      jumpi\n        /* \"#utility.yul\":6171:6250   */\n      tag_178\n      tag_70\n      jump\t// in\n    tag_178:\n        /* \"#utility.yul\":6135:6252   */\n    tag_177:\n        /* \"#utility.yul\":6276:6339   */\n      tag_179\n        /* \"#utility.yul\":6331:6338   */\n      dup6\n        /* \"#utility.yul\":6322:6328   */\n      dup3\n        /* \"#utility.yul\":6311:6320   */\n      dup7\n        /* \"#utility.yul\":6307:6329   */\n      add\n        /* \"#utility.yul\":6276:6339   */\n      tag_88\n      jump\t// in\n    tag_179:\n        /* \"#utility.yul\":6266:6339   */\n      swap3\n      pop\n        /* \"#utility.yul\":6062:6349   */\n      pop\n        /* \"#utility.yul\":6388:6390   */\n      0x20\n        /* \"#utility.yul\":6414:6467   */\n      tag_180\n        /* \"#utility.yul\":6459:6466   */\n      dup6\n        /* \"#utility.yul\":6450:6456   */\n      dup3\n        /* \"#utility.yul\":6439:6448   */\n      dup7\n        /* \"#utility.yul\":6435:6457   */\n      add\n        /* \"#utility.yul\":6414:6467   */\n      tag_73\n      jump\t// in\n    tag_180:\n        /* \"#utility.yul\":6404:6467   */\n      swap2\n      pop\n        /* \"#utility.yul\":6359:6477   */\n      pop\n        /* \"#utility.yul\":5830:6484   */\n      swap3\n      pop\n      swap3\n      swap1\n      pop\n      jump\t// out\n        /* \"#utility.yul\":6490:6803   */\n    tag_42:\n        /* \"#utility.yul\":6603:6607   */\n      0x00\n        /* \"#utility.yul\":6641:6643   */\n      0x20\n        /* \"#utility.yul\":6630:6639   */\n      dup3\n        /* \"#utility.yul\":6626:6644   */\n      add\n        /* \"#utility.yul\":6618:6644   */\n      swap1\n      pop\n        /* \"#utility.yul\":6690:6699   */\n      dup2\n        /* \"#utility.yul\":6684:6688   */\n      dup2\n        /* \"#utility.yul\":6680:6700   */\n      sub\n        /* \"#utility.yul\":6676:6677   */\n      0x00\n        /* \"#utility.yul\":6665:6674   */\n      dup4\n        /* \"#utility.yul\":6661:6678   */\n      add\n        /* \"#utility.yul\":6654:6701   */\n      mstore\n        /* \"#utility.yul\":6718:6796   */\n      tag_182\n        /* \"#utility.yul\":6791:6795   */\n      dup2\n        /* \"#utility.yul\":6782:6788   */\n      dup5\n        /* \"#utility.yul\":6718:6796   */\n      tag_79\n      jump\t// in\n    tag_182:\n        /* \"#utility.yul\":6710:6796   */\n      swap1\n      pop\n        /* \"#utility.yul\":6490:6803   */\n      swap3\n      swap2\n      pop\n      pop\n      jump\t// out\n        /* \"#utility.yul\":6809:6989   */\n    tag_89:\n        /* \"#utility.yul\":6857:6934   */\n      0x4e487b7100000000000000000000000000000000000000000000000000000000\n        /* \"#utility.yul\":6854:6855   */\n      0x00\n        /* \"#utility.yul\":6847:6935   */\n      mstore\n        /* \"#utility.yul\":6954:6958   */\n      0x22\n        /* \"#utility.yul\":6951:6952   */\n      0x04\n        /* \"#utility.yul\":6944:6959   */\n      mstore\n        /* \"#utility.yul\":6978:6982   */\n      0x24\n        /* \"#utility.yul\":6975:6976   */\n      0x00\n        /* \"#utility.yul\":6968:6983   */\n      revert\n        /* \"#utility.yul\":6995:7315   */\n    tag_46:\n        /* \"#utility.yul\":7039:7045   */\n      0x00\n        /* \"#utility.yul\":7076:7077   */\n      0x02\n        /* \"#utility.yul\":7070:7074   */\n      dup3\n        /* \"#utility.yul\":7066:7078   */\n      div\n        /* \"#utility.yul\":7056:7078   */\n      swap1\n      pop\n        /* \"#utility.yul\":7123:7124   */\n      0x01\n        /* \"#utility.yul\":7117:7121   */\n      dup3\n        /* \"#utility.yul\":7113:7125   */\n      and\n        /* \"#utility.yul\":7144:7162   */\n      dup1\n        /* \"#utility.yul\":7134:7215   */\n      tag_185\n      jumpi\n        /* \"#utility.yul\":7200:7204   */\n      0x7f\n        /* \"#utility.yul\":7192:7198   */\n      dup3\n        /* \"#utility.yul\":7188:7205   */\n      and\n        /* \"#utility.yul\":7178:7205   */\n      swap2\n      pop\n        /* \"#utility.yul\":7134:7215   */\n    tag_185:\n        /* \"#utility.yul\":7262:7264   */\n      0x20\n        /* \"#utility.yul\":7254:7260   */\n      dup3\n        /* \"#utility.yul\":7251:7265   */\n      lt\n        /* \"#utility.yul\":7231:7249   */\n      dup2\n        /* \"#utility.yul\":7228:7266   */\n      sub\n        /* \"#utility.yul\":7225:7309   */\n      tag_186\n      jumpi\n        /* \"#utility.yul\":7281:7299   */\n      tag_187\n      tag_89\n      jump\t// in\n    tag_187:\n        /* \"#utility.yul\":7225:7309   */\n    tag_186:\n        /* \"#utility.yul\":7046:7315   */\n      pop\n        /* \"#utility.yul\":6995:7315   */\n      swap2\n      swap1\n      pop\n      jump\t// out\n        /* \"#utility.yul\":7321:7501   */\n    tag_90:\n        /* \"#utility.yul\":7369:7446   */\n      0x4e487b7100000000000000000000000000000000000000000000000000000000\n        /* \"#utility.yul\":7366:7367   */\n      0x00\n        /* \"#utility.yul\":7359:7447   */\n      mstore\n        /* \"#utility.yul\":7466:7470   */\n      0x11\n        /* \"#utility.yul\":7463:7464   */\n      0x04\n        /* \"#utility.yul\":7456:7471   */\n      mstore\n        /* \"#utility.yul\":7490:7494   */\n      0x24\n        /* \"#utility.yul\":7487:7488   */\n      0x00\n        /* \"#utility.yul\":7480:7495   */\n      revert\n        /* \"#utility.yul\":7507:7698   */\n    tag_54:\n        /* \"#utility.yul\":7547:7550   */\n      0x00\n        /* \"#utility.yul\":7566:7586   */\n      tag_190\n        /* \"#utility.yul\":7584:7585   */\n      dup3\n        /* \"#utility.yul\":7566:7586   */\n      tag_71\n      jump\t// in\n    tag_190:\n        /* \"#utility.yul\":7561:7586   */\n      swap2\n      pop\n        /* \"#utility.yul\":7600:7620   */\n      tag_191\n        /* \"#utility.yul\":7618:7619   */\n      dup4\n        /* \"#utility.yul\":7600:7620   */\n      tag_71\n      jump\t// in\n    tag_191:\n        /* \"#utility.yul\":7595:7620   */\n      swap3\n      pop\n        /* \"#utility.yul\":7643:7644   */\n      dup3\n        /* \"#utility.yul\":7640:7641   */\n      dup3\n        /* \"#utility.yul\":7636:7645   */\n      add\n        /* \"#utility.yul\":7629:7645   */\n      swap1\n      pop\n        /* \"#utility.yul\":7664:7667   */\n      dup1\n        /* \"#utility.yul\":7661:7662   */\n      dup3\n        /* \"#utility.yul\":7658:7668   */\n      gt\n        /* \"#utility.yul\":7655:7691   */\n      iszero\n      tag_192\n      jumpi\n        /* \"#utility.yul\":7671:7689   */\n      tag_193\n      tag_90\n      jump\t// in\n    tag_193:\n        /* \"#utility.yul\":7655:7691   */\n    tag_192:\n        /* \"#utility.yul\":7507:7698   */\n      swap3\n      swap2\n      pop\n      pop\n      jump\t// out\n        /* \"#utility.yul\":7704:7845   */\n    tag_91:\n        /* \"#utility.yul\":7753:7757   */\n      0x00\n        /* \"#utility.yul\":7776:7779   */\n      dup2\n        /* \"#utility.yul\":7768:7779   */\n      swap1\n      pop\n        /* \"#utility.yul\":7799:7802   */\n      dup2\n        /* \"#utility.yul\":7796:7797   */\n      0x00\n        /* \"#utility.yul\":7789:7803   */\n      mstore\n        /* \"#utility.yul\":7833:7837   */\n      0x20\n        /* \"#utility.yul\":7830:7831   */\n      0x00\n        /* \"#utility.yul\":7820:7838   */\n      keccak256\n        /* \"#utility.yul\":7812:7838   */\n      swap1\n      pop\n        /* \"#utility.yul\":7704:7845   */\n      swap2\n      swap1\n      pop\n      jump\t// out\n        /* \"#utility.yul\":7851:7944   */\n    tag_92:\n        /* \"#utility.yul\":7888:7894   */\n      0x00\n        /* \"#utility.yul\":7935:7937   */\n      0x20\n        /* \"#utility.yul\":7930:7932   */\n      0x1f\n        /* \"#utility.yul\":7923:7928   */\n      dup4\n        /* \"#utility.yul\":7919:7933   */\n      add\n        /* \"#utility.yul\":7915:7938   */\n      div\n        /* \"#utility.yul\":7905:7938   */\n      swap1\n      pop\n        /* \"#utility.yul\":7851:7944   */\n      swap2\n      swap1\n      pop\n      jump\t// out\n        /* \"#utility.yul\":7950:8057   */\n    tag_93:\n        /* \"#utility.yul\":7994:8002   */\n      0x00\n        /* \"#utility.yul\":8044:8049   */\n      dup3\n        /* \"#utility.yul\":8038:8042   */\n      dup3\n        /* \"#utility.yul\":8034:8050   */\n      shl\n        /* \"#utility.yul\":8013:8050   */\n      swap1\n      pop\n        /* \"#utility.yul\":7950:8057   */\n      swap3\n      swap2\n      pop\n      pop\n      jump\t// out\n        /* \"#utility.yul\":8063:8456   */\n    tag_94:\n        /* \"#utility.yul\":8132:8138   */\n      0x00\n        /* \"#utility.yul\":8182:8183   */\n      0x08\n        /* \"#utility.yul\":8170:8180   */\n      dup4\n        /* \"#utility.yul\":8166:8184   */\n      mul\n        /* \"#utility.yul\":8205:8302   */\n      tag_198\n        /* \"#utility.yul\":8235:8301   */\n      0xffffffffffffffffffffffffffffffffffffffffffffffffffffffffffffffff\n        /* \"#utility.yul\":8224:8233   */\n      dup3\n        /* \"#utility.yul\":8205:8302   */\n      tag_93\n      jump\t// in\n    tag_198:\n        /* \"#utility.yul\":8323:8362   */\n      tag_199\n        /* \"#utility.yul\":8353:8361   */\n      dup7\n        /* \"#utility.yul\":8342:8351   */\n      dup4\n        /* \"#utility.yul\":8323:8362   */\n      tag_93\n      jump\t// in\n    tag_199:\n        /* \"#utility.yul\":8311:8362   */\n      swap6\n      pop\n        /* \"#utility.yul\":8395:8399   */\n      dup1\n        /* \"#utility.yul\":8391:8400   */\n      not\n        /* \"#utility.yul\":8384:8389   */\n      dup5\n        /* \"#utility.yul\":8380:8401   */\n      and\n        /* \"#utility.yul\":8371:8401   */\n      swap4\n      pop\n        /* \"#utility.yul\":8444:8448   */\n      dup1\n        /* \"#utility.yul\":8434:8442   */\n      dup7\n        /* \"#utility.yul\":8430:8449   */\n      and\n        /* \"#utility.yul\":8423:8428   */\n      dup5\n        /* \"#utility.yul\":8420:8450   */\n      or\n        /* \"#utility.yul\":8410:8450   */\n      swap3\n      pop\n        /* \"#utility.yul\":8139:8456   */\n      pop\n      pop\n        /* \"#utility.yul\":8063:8456   */\n      swap4\n      swap3\n      pop\n      pop\n      pop\n      jump\t// out\n        /* \"#utility.yul\":8462:8522   */\n    tag_95:\n        /* \"#utility.yul\":8490:8493   */\n      0x00\n        /* \"#utility.yul\":8511:8516   */\n      dup2\n        /* \"#utility.yul\":8504:8516   */\n      swap1\n      pop\n        /* \"#utility.yul\":8462:8522   */\n      swap2\n      swap1\n      pop\n      jump\t// out\n        /* \"#utility.yul\":8528:8670   */\n    tag_96:\n        /* \"#utility.yul\":8578:8587   */\n      0x00\n        /* \"#utility.yul\":8611:8664   */\n      tag_202\n        /* \"#utility.yul\":8629:8663   */\n      tag_203\n        /* \"#utility.yul\":8638:8662   */\n      tag_204\n        /* \"#utility.yul\":8656:8661   */\n      dup5\n        /* \"#utility.yul\":8638:8662   */\n      tag_71\n      jump\t// in\n    tag_204:\n        /* \"#utility.yul\":8629:8663   */\n      tag_95\n      jump\t// in\n    tag_203:\n        /* \"#utility.yul\":8611:8664   */\n      tag_71\n      jump\t// in\n    tag_202:\n        /* \"#utility.yul\":8598:8664   */\n      swap1\n      pop\n        /* \"#utility.yul\":8528:8670   */\n      swap2\n      swap1\n      pop\n      jump\t// out\n        /* \"#utility.yul\":8676:8751   */\n    tag_97:\n        /* \"#utility.yul\":8719:8722   */\n      0x00\n        /* \"#utility.yul\":8740:8745   */\n      dup2\n        /* \"#utility.yul\":8733:8745   */\n      swap1\n      pop\n        /* \"#utility.yul\":8676:8751   */\n      swap2\n      swap1\n      pop\n      jump\t// out\n        /* \"#utility.yul\":8757:9026   */\n    tag_98:\n        /* \"#utility.yul\":8867:8906   */\n      tag_207\n        /* \"#utility.yul\":8898:8905   */\n      dup4\n        /* \"#utility.yul\":8867:8906   */\n      tag_96\n      jump\t// in\n    tag_207:\n        /* \"#utility.yul\":8928:9019   */\n      tag_208\n        /* \"#utility.yul\":8977:9018   */\n      tag_209\n        /* \"#utility.yul\":9001:9017   */\n      dup3\n        /* \"#utility.yul\":8977:9018   */\n      tag_97\n      jump\t// in\n    tag_209:\n        /* \"#utility.yul\":8969:8975   */\n      dup5\n        /* \"#utility.yul\":8962:8966   */\n      dup5\n        /* \"#utility.yul\":8956:8967   */\n      sload\n        /* \"#utility.yul\":8928:9019   */\n      tag_94\n      jump\t// in\n    tag_208:\n        /* \"#utility.yul\":8922:8926   */\n      dup3\n        /* \"#utility.yul\":8915:9020   */\n      sstore\n        /* \"#utility.yul\":8833:9026   */\n      pop\n        /* \"#utility.yul\":8757:9026   */\n      pop\n      pop\n      pop\n      jump\t// out\n        /* \"#utility.yul\":9032:9105   */\n    tag_99:\n        /* \"#utility.yul\":9077:9080   */\n      0x00\n        /* \"#utility.yul\":9098:9099   */\n      0x00\n        /* \"#utility.yul\":9091:9099   */\n      swap1\n      pop\n        /* \"#utility.yul\":9032:9105   */\n      swap1\n      jump\t// out\n        /* \"#utility.yul\":9111:9300   */\n    tag_100:\n        /* \"#utility.yul\":9188:9220   */\n      tag_212\n      tag_99\n      jump\t// in\n    tag_212:\n        /* \"#utility.yul\":9229:9294   */\n      tag_213\n        /* \"#utility.yul\":9287:9293   */\n      dup2\n        /* \"#utility.yul\":9279:9285   */\n      dup5\n        /* \"#utility.yul\":9273:9277   */\n      dup5\n        /* \"#utility.yul\":9229:9294   */\n      tag_98\n      jump\t// in\n    tag_213:\n        /* \"#utility.yul\":9164:9300   */\n      pop\n        /* \"#utility.yul\":9111:9300   */\n      pop\n      pop\n      jump\t// out\n        /* \"#utility.yul\":9306:9492   */\n    tag_101:\n        /* \"#utility.yul\":9366:9486   */\n    tag_215:\n        /* \"#utility.yul\":9383:9386   */\n      dup2\n        /* \"#utility.yul\":9376:9381   */\n      dup2\n        /* \"#utility.yul\":9373:9387   */\n      lt\n        /* \"#utility.yul\":9366:9486   */\n      iszero\n      tag_217\n      jumpi\n        /* \"#utility.yul\":9437:9476   */\n      tag_218\n        /* \"#utility.yul\":9474:9475   */\n      0x00\n        /* \"#utility.yul\":9467:9472   */\n      dup3\n        /* \"#utility.yul\":9437:9476   */\n      tag_100\n      jump\t// in\n    tag_218:\n        /* \"#utility.yul\":9410:9411   */\n      0x01\n        /* \"#utility.yul\":9403:9408   */\n      dup2\n        /* \"#utility.yul\":9399:9412   */\n      add\n        /* \"#utility.yul\":9390:9412   */\n      swap1\n      pop\n        /* \"#utility.yul\":9366:9486   */\n      jump(tag_215)\n    tag_217:\n        /* \"#utility.yul\":9306:9492   */\n      pop\n      pop\n      jump\t// out\n        /* \"#utility.yul\":9498:10041   */\n    tag_102:\n        /* \"#utility.yul\":9599:9601   */\n      0x1f\n        /* \"#utility.yul\":9594:9597   */\n      dup3\n        /* \"#utility.yul\":9591:9602   */\n      gt\n        /* \"#utility.yul\":9588:10034   */\n      iszero\n      tag_220\n      jumpi\n        /* \"#utility.yul\":9633:9671   */\n      tag_221\n        /* \"#utility.yul\":9665:9670   */\n      dup2\n        /* \"#utility.yul\":9633:9671   */\n      tag_91\n      jump\t// in\n    tag_221:\n        /* \"#utility.yul\":9717:9746   */\n      tag_222\n        /* \"#utility.yul\":9735:9745   */\n      dup5\n        /* \"#utility.yul\":9717:9746   */\n      tag_92\n      jump\t// in\n    tag_222:\n        /* \"#utility.yul\":9707:9715   */\n      dup2\n        /* \"#utility.yul\":9703:9747   */\n      add\n        /* \"#utility.yul\":9900:9902   */\n      0x20\n        /* \"#utility.yul\":9888:9898   */\n      dup6\n        /* \"#utility.yul\":9885:9903   */\n      lt\n        /* \"#utility.yul\":9882:9931   */\n      iszero\n      tag_223\n      jumpi\n        /* \"#utility.yul\":9921:9929   */\n      dup2\n        /* \"#utility.yul\":9906:9929   */\n      swap1\n      pop\n        /* \"#utility.yul\":9882:9931   */\n    tag_223:\n        /* \"#utility.yul\":9944:10024   */\n      tag_224\n        /* \"#utility.yul\":10000:10022   */\n      tag_225\n        /* \"#utility.yul\":10018:10021   */\n      dup6\n        /* \"#utility.yul\":10000:10022   */\n      tag_92\n      jump\t// in\n    tag_225:\n        /* \"#utility.yul\":9990:9998   */\n      dup4\n        /* \"#utility.yul\":9986:10023   */\n      add\n        /* \"#utility.yul\":9973:9984   */\n      dup3\n        /* \"#utility.yul\":9944:10024   */\n      tag_101\n      jump\t// in\n    tag_224:\n        /* \"#utility.yul\":9603:10034   */\n      pop\n      pop\n        /* \"#utility.yul\":9588:10034   */\n    tag_220:\n        /* \"#utility.yul\":9498:10041   */\n      pop\n      pop\n      pop\n      jump\t// out\n        /* \"#utility.yul\":10047:10164   */\n    tag_103:\n        /* \"#utility.yul\":10101:10109   */\n      0x00\n        /* \"#utility.yul\":10151:10156   */\n      dup3\n        /* \"#utility.yul\":10145:10149   */\n      dup3\n        /* \"#utility.yul\":10141:10157   */\n      shr\n        /* \"#utility.yul\":10120:10157   */\n      swap1\n      pop\n        /* \"#utility.yul\":10047:10164   */\n      swap3\n      swap2\n      pop\n      pop\n      jump\t// out\n        /* \"#utility.yul\":10170:10339   */\n    tag_104:\n        /* \"#utility.yul\":10214:10220   */\n      0x00\n        /* \"#utility.yul\":10247:10298   */\n      tag_228\n        /* \"#utility.yul\":10295:10296   */\n      0x00\n        /* \"#utility.yul\":10291:10297   */\n      not\n        /* \"#utility.yul\":10283:10288   */\n      dup5\n        /* \"#utility.yul\":10280:10281   */\n      0x08\n        /* \"#utility.yul\":10276:10289   */\n      mul\n        /* \"#utility.yul\":10247:10298   */\n      tag_103\n      jump\t// in\n    tag_228:\n        /* \"#utility.yul\":10243:10299   */\n      not\n        /* \"#utility.yul\":10328:10332   */\n      dup1\n        /* \"#utility.yul\":10322:10326   */\n      dup4\n        /* \"#utility.yul\":10318:10333   */\n      and\n        /* \"#utility.yul\":10308:10333   */\n      swap2\n      pop\n        /* \"#utility.yul\":10221:10339   */\n      pop\n        /* \"#utility.yul\":10170:10339   */\n      swap3\n      swap2\n      pop\n      pop\n      jump\t// out\n        /* \"#utility.yul\":10344:10639   */\n    tag_105:\n        /* \"#utility.yul\":10420:10424   */\n      0x00\n        /* \"#utility.yul\":10566:10595   */\n      tag_230\n        /* \"#utility.yul\":10591:10594   */\n      dup4\n        /* \"#utility.yul\":10585:10589   */\n      dup4\n        /* \"#utility.yul\":10566:10595   */\n      tag_104\n      jump\t// in\n    tag_230:\n        /* \"#utility.yul\":10558:10595   */\n      swap2\n      pop\n        /* \"#utility.yul\":10628:10631   */\n      dup3\n        /* \"#utility.yul\":10625:10626   */\n      0x02\n        /* \"#utility.yul\":10621:10632   */\n      mul\n        /* \"#utility.yul\":10615:10619   */\n      dup3\n        /* \"#utility.yul\":10612:10633   */\n      or\n        /* \"#utility.yul\":10604:10633   */\n      swap1\n      pop\n        /* \"#utility.yul\":10344:10639   */\n      swap3\n      swap2\n      pop\n      pop\n      jump\t// out\n        /* \"#utility.yul\":10644:12039   */\n    tag_58:\n        /* \"#utility.yul\":10761:10798   */\n      tag_232\n        /* \"#utility.yul\":10794:10797   */\n      dup3\n        /* \"#utility.yul\":10761:10798   */\n      tag_75\n      jump\t// in\n    tag_232:\n        /* \"#utility.yul\":10863:10881   */\n      0xffffffffffffffff\n        /* \"#utility.yul\":10855:10861   */\n      dup2\n        /* \"#utility.yul\":10852:10882   */\n      gt\n        /* \"#utility.yul\":10849:10905   */\n      iszero\n      tag_233\n      jumpi\n        /* \"#utility.yul\":10885:10903   */\n      tag_234\n      tag_82\n      jump\t// in\n    tag_234:\n        /* \"#utility.yul\":10849:10905   */\n    tag_233:\n        /* \"#utility.yul\":10929:10967   */\n      tag_235\n        /* \"#utility.yul\":10961:10965   */\n      dup3\n        /* \"#utility.yul\":10955:10966   */\n      sload\n        /* \"#utility.yul\":10929:10967   */\n      tag_46\n      jump\t// in\n    tag_235:\n        /* \"#utility.yul\":11014:11081   */\n      tag_236\n        /* \"#utility.yul\":11074:11080   */\n      dup3\n        /* \"#utility.yul\":11066:11072   */\n      dup3\n        /* \"#utility.yul\":11060:11064   */\n      dup6\n        /* \"#utility.yul\":11014:11081   */\n      tag_102\n      jump\t// in\n    tag_236:\n        /* \"#utility.yul\":11108:11109   */\n      0x00\n        /* \"#utility.yul\":11132:11136   */\n      0x20\n        /* \"#utility.yul\":11119:11136   */\n      swap1\n      pop\n        /* \"#utility.yul\":11164:11166   */\n      0x1f\n        /* \"#utility.yul\":11156:11162   */\n      dup4\n        /* \"#utility.yul\":11153:11167   */\n      gt\n        /* \"#utility.yul\":11181:11182   */\n      0x01\n        /* \"#utility.yul\":11176:11794   */\n      dup2\n      eq\n      tag_238\n      jumpi\n        /* \"#utility.yul\":11838:11839   */\n      0x00\n        /* \"#utility.yul\":11855:11861   */\n      dup5\n        /* \"#utility.yul\":11852:11929   */\n      iszero\n      tag_239\n      jumpi\n        /* \"#utility.yul\":11904:11913   */\n      dup3\n        /* \"#utility.yul\":11899:11902   */\n      dup8\n        /* \"#utility.yul\":11895:11914   */\n      add\n        /* \"#utility.yul\":11889:11915   */\n      mload\n        /* \"#utility.yul\":11880:11915   */\n      swap1\n      pop\n        /* \"#utility.yul\":11852:11929   */\n    tag_239:\n        /* \"#utility.yul\":11955:12022   */\n      tag_240\n        /* \"#utility.yul\":12015:12021   */\n      dup6\n        /* \"#utility.yul\":12008:12013   */\n      dup3\n        /* \"#utility.yul\":11955:12022   */\n      tag_105\n      jump\t// in\n    tag_240:\n        /* \"#utility.yul\":11949:11953   */\n      dup7\n        /* \"#utility.yul\":11942:12023   */\n      sstore\n        /* \"#utility.yul\":11811:12033   */\n      pop\n        /* \"#utility.yul\":11146:12033   */\n      jump(tag_237)\n        /* \"#utility.yul\":11176:11794   */\n    tag_238:\n        /* \"#utility.yul\":11228:11232   */\n      0x1f\n        /* \"#utility.yul\":11224:11233   */\n      not\n        /* \"#utility.yul\":11216:11222   */\n      dup5\n        /* \"#utility.yul\":11212:11234   */\n      and\n        /* \"#utility.yul\":11262:11299   */\n      tag_241\n        /* \"#utility.yul\":11294:11298   */\n      dup7\n        /* \"#utility.yul\":11262:11299   */\n      tag_91\n      jump\t// in\n    tag_241:\n        /* \"#utility.yul\":11321:11322   */\n      0x00\n        /* \"#utility.yul\":11335:11543   */\n    tag_242:\n        /* \"#utility.yul\":11349:11356   */\n      dup3\n        /* \"#utility.yul\":11346:11347   */\n      dup2\n        /* \"#utility.yul\":11343:11357   */\n      lt\n        /* \"#utility.yul\":11335:11543   */\n      iszero\n      tag_244\n      jumpi\n        /* \"#utility.yul\":11428:11437   */\n      dup5\n        /* \"#utility.yul\":11423:11426   */\n      dup10\n        /* \"#utility.yul\":11419:11438   */\n      add\n        /* \"#utility.yul\":11413:11439   */\n      mload\n        /* \"#utility.yul\":11405:11411   */\n      dup3\n        /* \"#utility.yul\":11398:11440   */\n      sstore\n        /* \"#utility.yul\":11479:11480   */\n      0x01\n        /* \"#utility.yul\":11471:11477   */\n      dup3\n        /* \"#utility.yul\":11467:11481   */\n      add\n        /* \"#utility.yul\":11457:11481   */\n      swap2\n      pop\n        /* \"#utility.yul\":11526:11528   */\n      0x20\n        /* \"#utility.yul\":11515:11524   */\n      dup6\n        /* \"#utility.yul\":11511:11529   */\n      add\n        /* \"#utility.yul\":11498:11529   */\n      swap5\n      pop\n        /* \"#utility.yul\":11372:11376   */\n      0x20\n        /* \"#utility.yul\":11369:11370   */\n      dup2\n        /* \"#utility.yul\":11365:11377   */\n      add\n        /* \"#utility.yul\":11360:11377   */\n      swap1\n      pop\n        /* \"#utility.yul\":11335:11543   */\n      jump(tag_242)\n    tag_244:\n        /* \"#utility.yul\":11571:11577   */\n      dup7\n        /* \"#utility.yul\":11562:11569   */\n      dup4\n        /* \"#utility.yul\":11559:11578   */\n      lt\n        /* \"#utility.yul\":11556:11735   */\n      iszero\n      tag_245\n      jumpi\n        /* \"#utility.yul\":11629:11638   */\n      dup5\n        /* \"#utility.yul\":11624:11627   */\n      dup10\n        /* \"#utility.yul\":11620:11639   */\n      add\n        /* \"#utility.yul\":11614:11640   */\n      mload\n        /* \"#utility.yul\":11672:11720   */\n      tag_246\n        /* \"#utility.yul\":11714:11718   */\n      0x1f\n        /* \"#utility.yul\":11706:11712   */\n      dup10\n        /* \"#utility.yul\":11702:11719   */\n      and\n        /* \"#utility.yul\":11691:11700   */\n      dup3\n        /* \"#utility.yul\":11672:11720   */\n      tag_104\n      jump\t// in\n    tag_246:\n        /* \"#utility.yul\":11664:11670   */\n      dup4\n        /* \"#utility.yul\":11657:11721   */\n      sstore\n        /* \"#utility.yul\":11579:11735   */\n      pop\n        /* \"#utility.yul\":11556:11735   */\n    tag_245:\n        /* \"#utility.yul\":11781:11782   */\n      0x01\n        /* \"#utility.yul\":11777:11778   */\n      0x02\n        /* \"#utility.yul\":11769:11775   */\n      dup9\n        /* \"#utility.yul\":11765:11779   */\n      mul\n        /* \"#utility.yul\":11761:11783   */\n      add\n        /* \"#utility.yul\":11755:11759   */\n      dup9\n        /* \"#utility.yul\":11748:11784   */\n      sstore\n        /* \"#utility.yul\":11183:11794   */\n      pop\n      pop\n      pop\n        /* \"#utility.yul\":11146:12033   */\n    tag_237:\n      pop\n        /* \"#utility.yul\":10736:12039   */\n      pop\n      pop\n      pop\n        /* \"#utility.yul\":10644:12039   */\n      pop\n      pop\n      jump\t// out\n        /* \"#utility.yul\":12045:12193   */\n    tag_106:\n        /* \"#utility.yul\":12147:12158   */\n      0x00\n        /* \"#utility.yul\":12184:12187   */\n      dup2\n        /* \"#utility.yul\":12169:12187   */\n      swap1\n      pop\n        /* \"#utility.yul\":12045:12193   */\n      swap3\n      swap2\n      pop\n      pop\n      jump\t// out\n        /* \"#utility.yul\":12199:12589   */\n    tag_107:\n        /* \"#utility.yul\":12305:12308   */\n      0x00\n        /* \"#utility.yul\":12333:12372   */\n      tag_249\n        /* \"#utility.yul\":12366:12371   */\n      dup3\n        /* \"#utility.yul\":12333:12372   */\n      tag_75\n      jump\t// in\n    tag_249:\n        /* \"#utility.yul\":12388:12477   */\n      tag_250\n        /* \"#utility.yul\":12470:12476   */\n      dup2\n        /* \"#utility.yul\":12465:12468   */\n      dup6\n        /* \"#utility.yul\":12388:12477   */\n      tag_106\n      jump\t// in\n    tag_250:\n        /* \"#utility.yul\":12381:12477   */\n      swap4\n      pop\n        /* \"#utility.yul\":12486:12551   */\n      tag_251\n        /* \"#utility.yul\":12544:12550   */\n      dup2\n        /* \"#utility.yul\":12539:12542   */\n      dup6\n        /* \"#utility.yul\":12532:12536   */\n      0x20\n        /* \"#utility.yul\":12525:12530   */\n      dup7\n        /* \"#utility.yul\":12521:12537   */\n      add\n        /* \"#utility.yul\":12486:12551   */\n      tag_77\n      jump\t// in\n    tag_251:\n        /* \"#utility.yul\":12576:12582   */\n      dup1\n        /* \"#utility.yul\":12571:12574   */\n      dup5\n        /* \"#utility.yul\":12567:12583   */\n      add\n        /* \"#utility.yul\":12560:12583   */\n      swap2\n      pop\n        /* \"#utility.yul\":12309:12589   */\n      pop\n        /* \"#utility.yul\":12199:12589   */\n      swap3\n      swap2\n      pop\n      pop\n      jump\t// out\n        /* \"#utility.yul\":12595:12870   */\n    tag_60:\n        /* \"#utility.yul\":12727:12730   */\n      0x00\n        /* \"#utility.yul\":12749:12844   */\n      tag_253\n        /* \"#utility.yul\":12840:12843   */\n      dup3\n        /* \"#utility.yul\":12831:12837   */\n      dup5\n        /* \"#utility.yul\":12749:12844   */\n      tag_107\n      jump\t// in\n    tag_253:\n        /* \"#utility.yul\":12742:12844   */\n      swap2\n      pop\n        /* \"#utility.yul\":12861:12864   */\n      dup2\n        /* \"#utility.yul\":12854:12864   */\n      swap1\n      pop\n        /* \"#utility.yul\":12595:12870   */\n      swap3\n      swap2\n      pop\n      pop\n      jump\t// out\n\n    auxdata: 0xa2646970667358221220b91e5523469d64e1e47cb49f8834d7b987cc9757323f0cb2be7f7ffb209939ee64736f6c634300081c0033\n}\n",
				"bytecode": {
					"linkReferences": {},
					"object": "6080604052348015600e575f5ffd5b50610aee8061001c5f395ff3fe608060405234801561000f575f5ffd5b506004361061007b575f3560e01c80636a19e6de116100595780636a19e6de146100fc5780636f760f411461012c5780639b4e2cdd14610148578063aa3ff017146101665761007b565b80632ebce6311461007f57806343ec8f47146100b05780636057361d146100e0575b5f5ffd5b61009960048036038101906100949190610420565b610196565b6040516100a79291906104ca565b60405180910390f35b6100ca60048036038101906100c59190610624565b61024b565b6040516100d7919061066b565b60405180910390f35b6100fa60048036038101906100f59190610420565b610278565b005b61011660048036038101906101119190610684565b610281565b604051610123919061066b565b60405180910390f35b610146600480360381019061014191906106c2565b610296565b005b610150610339565b60405161015d919061066b565b60405180910390f35b610180600480360381019061017b9190610420565b610341565b60405161018d919061071c565b60405180910390f35b600281815481106101a5575f80fd5b905f5260205f2090600202015f91509050805f0154908060010180546101ca90610769565b80601f01602080910402602001604051908101604052809291908181526020018280546101f690610769565b80156102415780601f1061021857610100808354040283529160200191610241565b820191905f5260205f20905b81548152906001019060200180831161022457829003601f168201915b5050505050905082565b6003818051602081018201805184825260208301602085012081835280955050505050505f915090505481565b805f8190555050565b5f818361028e91906107c6565b905092915050565b6002604051806040016040528083815260200184815250908060018154018082558091505060019003905f5260205f2090600202015f909190919091505f820151815f015560208201518160010190816102f09190610999565b505050806003836040516103049190610aa2565b9081526020016040518091039020819055508160045f8381526020019081526020015f2090816103349190610999565b505050565b5f5f54905090565b6004602052805f5260405f205f91509050805461035d90610769565b80601f016020809104026020016040519081016040528092919081815260200182805461038990610769565b80156103d45780601f106103ab576101008083540402835291602001916103d4565b820191905f5260205f20905b8154815290600101906020018083116103b757829003601f168201915b505050505081565b5f604051905090565b5f5ffd5b5f5ffd5b5f819050919050565b6103ff816103ed565b8114610409575f5ffd5b50565b5f8135905061041a816103f6565b92915050565b5f60208284031215610435576104346103e5565b5b5f6104428482850161040c565b91505092915050565b610454816103ed565b82525050565b5f81519050919050565b5f82825260208201905092915050565b8281835e5f83830152505050565b5f601f19601f8301169050919050565b5f61049c8261045a565b6104a68185610464565b93506104b6818560208601610474565b6104bf81610482565b840191505092915050565b5f6040820190506104dd5f83018561044b565b81810360208301526104ef8184610492565b90509392505050565b5f5ffd5b5f5ffd5b7f4e487b71000000000000000000000000000000000000000000000000000000005f52604160045260245ffd5b61053682610482565b810181811067ffffffffffffffff8211171561055557610554610500565b5b80604052505050565b5f6105676103dc565b9050610573828261052d565b919050565b5f67ffffffffffffffff82111561059257610591610500565b5b61059b82610482565b9050602081019050919050565b828183375f83830152505050565b5f6105c86105c384610578565b61055e565b9050828152602081018484840111156105e4576105e36104fc565b5b6105ef8482856105a8565b509392505050565b5f82601f83011261060b5761060a6104f8565b5b813561061b8482602086016105b6565b91505092915050565b5f60208284031215610639576106386103e5565b5b5f82013567ffffffffffffffff811115610656576106556103e9565b5b610662848285016105f7565b91505092915050565b5f60208201905061067e5f83018461044b565b92915050565b5f5f6040838503121561069a576106996103e5565b5b5f6106a78582860161040c565b92505060206106b88582860161040c565b9150509250929050565b5f5f604083850312156106d8576106d76103e5565b5b5f83013567ffffffffffffffff8111156106f5576106f46103e9565b5b610701858286016105f7565b92505060206107128582860161040c565b9150509250929050565b5f6020820190508181035f8301526107348184610492565b905092915050565b7f4e487b71000000000000000000000000000000000000000000000000000000005f52602260045260245ffd5b5f600282049050600182168061078057607f821691505b6020821081036107935761079261073c565b5b50919050565b7f4e487b71000000000000000000000000000000000000000000000000000000005f52601160045260245ffd5b5f6107d0826103ed565b91506107db836103ed565b92508282019050808211156107f3576107f2610799565b5b92915050565b5f819050815f5260205f209050919050565b5f6020601f8301049050919050565b5f82821b905092915050565b5f600883026108557fffffffffffffffffffffffffffffffffffffffffffffffffffffffffffffffff8261081a565b61085f868361081a565b95508019841693508086168417925050509392505050565b5f819050919050565b5f61089a610895610890846103ed565b610877565b6103ed565b9050919050565b5f819050919050565b6108b383610880565b6108c76108bf826108a1565b848454610826565b825550505050565b5f5f905090565b6108de6108cf565b6108e98184846108aa565b505050565b5b8181101561090c576109015f826108d6565b6001810190506108ef565b5050565b601f82111561095157610922816107f9565b61092b8461080b565b8101602085101561093a578190505b61094e6109468561080b565b8301826108ee565b50505b505050565b5f82821c905092915050565b5f6109715f1984600802610956565b1980831691505092915050565b5f6109898383610962565b9150826002028217905092915050565b6109a28261045a565b67ffffffffffffffff8111156109bb576109ba610500565b5b6109c58254610769565b6109d0828285610910565b5f60209050601f831160018114610a01575f84156109ef578287015190505b6109f9858261097e565b865550610a60565b601f198416610a0f866107f9565b5f5b82811015610a3657848901518255600182019150602085019450602081019050610a11565b86831015610a535784890151610a4f601f891682610962565b8355505b6001600288020188555050505b505050505050565b5f81905092915050565b5f610a7c8261045a565b610a868185610a68565b9350610a96818560208601610474565b80840191505092915050565b5f610aad8284610a72565b91508190509291505056fea2646970667358221220b91e5523469d64e1e47cb49f8834d7b987cc9757323f0cb2be7f7ffb209939ee64736f6c634300081c0033",
					"opcodes": "PUSH1 0x80 PUSH1 0x40 MSTORE CALLVALUE DUP1 ISZERO PUSH1 0xE JUMPI PUSH0 PUSH0 REVERT JUMPDEST POP PUSH2 0xAEE DUP1 PUSH2 0x1C PUSH0 CODECOPY PUSH0 RETURN INVALID PUSH1 0x80 PUSH1 0x40 MSTORE CALLVALUE DUP1 ISZERO PUSH2 0xF JUMPI PUSH0 PUSH0 REVERT JUMPDEST POP PUSH1 0x4 CALLDATASIZE LT PUSH2 0x7B JUMPI PUSH0 CALLDATALOAD PUSH1 0xE0 SHR DUP1 PUSH4 0x6A19E6DE GT PUSH2 0x59 JUMPI DUP1 PUSH4 0x6A19E6DE EQ PUSH2 0xFC JUMPI DUP1 PUSH4 0x6F760F41 EQ PUSH2 0x12C JUMPI DUP1 PUSH4 0x9B4E2CDD EQ PUSH2 0x148 JUMPI DUP1 PUSH4 0xAA3FF017 EQ PUSH2 0x166 JUMPI PUSH2 0x7B JUMP JUMPDEST DUP1 PUSH4 0x2EBCE631 EQ PUSH2 0x7F JUMPI DUP1 PUSH4 0x43EC8F47 EQ PUSH2 0xB0 JUMPI DUP1 PUSH4 0x6057361D EQ PUSH2 0xE0 JUMPI JUMPDEST PUSH0 PUSH0 REVERT JUMPDEST PUSH2 0x99 PUSH1 0x4 DUP1 CALLDATASIZE SUB DUP2 ADD SWAP1 PUSH2 0x94 SWAP2 SWAP1 PUSH2 0x420 JUMP JUMPDEST PUSH2 0x196 JUMP JUMPDEST PUSH1 0x40 MLOAD PUSH2 0xA7 SWAP3 SWAP2 SWAP1 PUSH2 0x4CA JUMP JUMPDEST PUSH1 0x40 MLOAD DUP1 SWAP2 SUB SWAP1 RETURN JUMPDEST PUSH2 0xCA PUSH1 0x4 DUP1 CALLDATASIZE SUB DUP2 ADD SWAP1 PUSH2 0xC5 SWAP2 SWAP1 PUSH2 0x624 JUMP JUMPDEST PUSH2 0x24B JUMP JUMPDEST PUSH1 0x40 MLOAD PUSH2 0xD7 SWAP2 SWAP1 PUSH2 0x66B JUMP JUMPDEST PUSH1 0x40 MLOAD DUP1 SWAP2 SUB SWAP1 RETURN JUMPDEST PUSH2 0xFA PUSH1 0x4 DUP1 CALLDATASIZE SUB DUP2 ADD SWAP1 PUSH2 0xF5 SWAP2 SWAP1 PUSH2 0x420 JUMP JUMPDEST PUSH2 0x278 JUMP JUMPDEST STOP JUMPDEST PUSH2 0x116 PUSH1 0x4 DUP1 CALLDATASIZE SUB DUP2 ADD SWAP1 PUSH2 0x111 SWAP2 SWAP1 PUSH2 0x684 JUMP JUMPDEST PUSH2 0x281 JUMP JUMPDEST PUSH1 0x40 MLOAD PUSH2 0x123 SWAP2 SWAP1 PUSH2 0x66B JUMP JUMPDEST PUSH1 0x40 MLOAD DUP1 SWAP2 SUB SWAP1 RETURN JUMPDEST PUSH2 0x146 PUSH1 0x4 DUP1 CALLDATASIZE SUB DUP2 ADD SWAP1 PUSH2 0x141 SWAP2 SWAP1 PUSH2 0x6C2 JUMP JUMPDEST PUSH2 0x296 JUMP JUMPDEST STOP JUMPDEST PUSH2 0x150 PUSH2 0x339 JUMP JUMPDEST PUSH1 0x40 MLOAD PUSH2 0x15D SWAP2 SWAP1 PUSH2 0x66B JUMP JUMPDEST PUSH1 0x40 MLOAD DUP1 SWAP2 SUB SWAP1 RETURN JUMPDEST PUSH2 0x180 PUSH1 0x4 DUP1 CALLDATASIZE SUB DUP2 ADD SWAP1 PUSH2 0x17B SWAP2 SWAP1 PUSH2 0x420 JUMP JUMPDEST PUSH2 0x341 JUMP JUMPDEST PUSH1 0x40 MLOAD PUSH2 0x18D SWAP2 SWAP1 PUSH2 0x71C JUMP JUMPDEST PUSH1 0x40 MLOAD DUP1 SWAP2 SUB SWAP1 RETURN JUMPDEST PUSH1 0x2 DUP2 DUP2 SLOAD DUP2 LT PUSH2 0x1A5 JUMPI PUSH0 DUP1 REVERT JUMPDEST SWAP1 PUSH0 MSTORE PUSH1 0x20 PUSH0 KECCAK256 SWAP1 PUSH1 0x2 MUL ADD PUSH0 SWAP2 POP SWAP1 POP DUP1 PUSH0 ADD SLOAD SWAP1 DUP1 PUSH1 0x1 ADD DUP1 SLOAD PUSH2 0x1CA SWAP1 PUSH2 0x769 JUMP JUMPDEST DUP1 PUSH1 0x1F ADD PUSH1 0x20 DUP1 SWAP2 DIV MUL PUSH1 0x20 ADD PUSH1 0x40 MLOAD SWAP1 DUP2 ADD PUSH1 0x40 MSTORE DUP1 SWAP3 SWAP2 SWAP1 DUP2 DUP2 MSTORE PUSH1 0x20 ADD DUP3 DUP1 SLOAD PUSH2 0x1F6 SWAP1 PUSH2 0x769 JUMP JUMPDEST DUP1 ISZERO PUSH2 0x241 JUMPI DUP1 PUSH1 0x1F LT PUSH2 0x218 JUMPI PUSH2 0x100 DUP1 DUP4 SLOAD DIV MUL DUP4 MSTORE SWAP2 PUSH1 0x20 ADD SWAP2 PUSH2 0x241 JUMP JUMPDEST DUP3 ADD SWAP2 SWAP1 PUSH0 MSTORE PUSH1 0x20 PUSH0 KECCAK256 SWAP1 JUMPDEST DUP2 SLOAD DUP2 MSTORE SWAP1 PUSH1 0x1 ADD SWAP1 PUSH1 0x20 ADD DUP1 DUP4 GT PUSH2 0x224 JUMPI DUP3 SWAP1 SUB PUSH1 0x1F AND DUP3 ADD SWAP2 JUMPDEST POP POP POP POP POP SWAP1 POP DUP3 JUMP JUMPDEST PUSH1 0x3 DUP2 DUP1 MLOAD PUSH1 0x20 DUP2 ADD DUP3 ADD DUP1 MLOAD DUP5 DUP3 MSTORE PUSH1 0x20 DUP4 ADD PUSH1 0x20 DUP6 ADD KECCAK256 DUP2 DUP4 MSTORE DUP1 SWAP6 POP POP POP POP POP POP PUSH0 SWAP2 POP SWAP1 POP SLOAD DUP2 JUMP JUMPDEST DUP1 PUSH0 DUP2 SWAP1 SSTORE POP POP JUMP JUMPDEST PUSH0 DUP2 DUP4 PUSH2 0x28E SWAP2 SWAP1 PUSH2 0x7C6 JUMP JUMPDEST SWAP1 POP SWAP3 SWAP2 POP POP JUMP JUMPDEST PUSH1 0x2 PUSH1 0x40 MLOAD DUP1 PUSH1 0x40 ADD PUSH1 0x40 MSTORE DUP1 DUP4 DUP2 MSTORE PUSH1 0x20 ADD DUP5 DUP2 MSTORE POP SWAP1 DUP1 PUSH1 0x1 DUP2 SLOAD ADD DUP1 DUP3 SSTORE DUP1 SWAP2 POP POP PUSH1 0x1 SWAP1 SUB SWAP1 PUSH0 MSTORE PUSH1 0x20 PUSH0 KECCAK256 SWAP1 PUSH1 0x2 MUL ADD PUSH0 SWAP1 SWAP2 SWAP1 SWAP2 SWAP1 SWAP2 POP PUSH0 DUP3 ADD MLOAD DUP2 PUSH0 ADD SSTORE PUSH1 0x20 DUP3 ADD MLOAD DUP2 PUSH1 0x1 ADD SWAP1 DUP2 PUSH2 0x2F0 SWAP2 SWAP1 PUSH2 0x999 JUMP JUMPDEST POP POP POP DUP1 PUSH1 0x3 DUP4 PUSH1 0x40 MLOAD PUSH2 0x304 SWAP2 SWAP1 PUSH2 0xAA2 JUMP JUMPDEST SWAP1 DUP2 MSTORE PUSH1 0x20 ADD PUSH1 0x40 MLOAD DUP1 SWAP2 SUB SWAP1 KECCAK256 DUP2 SWAP1 SSTORE POP DUP2 PUSH1 0x4 PUSH0 DUP4 DUP2 MSTORE PUSH1 0x20 ADD SWAP1 DUP2 MSTORE PUSH1 0x20 ADD PUSH0 KECCAK256 SWAP1 DUP2 PUSH2 0x334 SWAP2 SWAP1 PUSH2 0x999 JUMP JUMPDEST POP POP POP JUMP JUMPDEST PUSH0 PUSH0 SLOAD SWAP1 POP SWAP1 JUMP JUMPDEST PUSH1 0x4 PUSH1 0x20 MSTORE DUP1 PUSH0 MSTORE PUSH1 0x40 PUSH0 KECCAK256 PUSH0 SWAP2 POP SWAP1 POP DUP1 SLOAD PUSH2 0x35D SWAP1 PUSH2 0x769 JUMP JUMPDEST DUP1 PUSH1 0x1F ADD PUSH1 0x20 DUP1 SWAP2 DIV MUL PUSH1 0x20 ADD PUSH1 0x40 MLOAD SWAP1 DUP2 ADD PUSH1 0x40 MSTORE DUP1 SWAP3 SWAP2 SWAP1 DUP2 DUP2 MSTORE PUSH1 0x20 ADD DUP3 DUP1 SLOAD PUSH2 0x389 SWAP1 PUSH2 0x769 JUMP JUMPDEST DUP1 ISZERO PUSH2 0x3D4 JUMPI DUP1 PUSH1 0x1F LT PUSH2 0x3AB JUMPI PUSH2 0x100 DUP1 DUP4 SLOAD DIV MUL DUP4 MSTORE SWAP2 PUSH1 0x20 ADD SWAP2 PUSH2 0x3D4 JUMP JUMPDEST DUP3 ADD SWAP2 SWAP1 PUSH0 MSTORE PUSH1 0x20 PUSH0 KECCAK256 SWAP1 JUMPDEST DUP2 SLOAD DUP2 MSTORE SWAP1 PUSH1 0x1 ADD SWAP1 PUSH1 0x20 ADD DUP1 DUP4 GT PUSH2 0x3B7 JUMPI DUP3 SWAP1 SUB PUSH1 0x1F AND DUP3 ADD SWAP2 JUMPDEST POP POP POP POP POP DUP2 JUMP JUMPDEST PUSH0 PUSH1 0x40 MLOAD SWAP1 POP SWAP1 JUMP JUMPDEST PUSH0 PUSH0 REVERT JUMPDEST PUSH0 PUSH0 REVERT JUMPDEST PUSH0 DUP2 SWAP1 POP SWAP2 SWAP1 POP JUMP JUMPDEST PUSH2 0x3FF DUP2 PUSH2 0x3ED JUMP JUMPDEST DUP2 EQ PUSH2 0x409 JUMPI PUSH0 PUSH0 REVERT JUMPDEST POP JUMP JUMPDEST PUSH0 DUP2 CALLDATALOAD SWAP1 POP PUSH2 0x41A DUP2 PUSH2 0x3F6 JUMP JUMPDEST SWAP3 SWAP2 POP POP JUMP JUMPDEST PUSH0 PUSH1 0x20 DUP3 DUP5 SUB SLT ISZERO PUSH2 0x435 JUMPI PUSH2 0x434 PUSH2 0x3E5 JUMP JUMPDEST JUMPDEST PUSH0 PUSH2 0x442 DUP5 DUP3 DUP6 ADD PUSH2 0x40C JUMP JUMPDEST SWAP2 POP POP SWAP3 SWAP2 POP POP JUMP JUMPDEST PUSH2 0x454 DUP2 PUSH2 0x3ED JUMP JUMPDEST DUP3 MSTORE POP POP JUMP JUMPDEST PUSH0 DUP2 MLOAD SWAP1 POP SWAP2 SWAP1 POP JUMP JUMPDEST PUSH0 DUP3 DUP3 MSTORE PUSH1 0x20 DUP3 ADD SWAP1 POP SWAP3 SWAP2 POP POP JUMP JUMPDEST DUP3 DUP2 DUP4 MCOPY PUSH0 DUP4 DUP4 ADD MSTORE POP POP POP JUMP JUMPDEST PUSH0 PUSH1 0x1F NOT PUSH1 0x1F DUP4 ADD AND SWAP1 POP SWAP2 SWAP1 POP JUMP JUMPDEST PUSH0 PUSH2 0x49C DUP3 PUSH2 0x45A JUMP JUMPDEST PUSH2 0x4A6 DUP2 DUP6 PUSH2 0x464 JUMP JUMPDEST SWAP4 POP PUSH2 0x4B6 DUP2 DUP6 PUSH1 0x20 DUP7 ADD PUSH2 0x474 JUMP JUMPDEST PUSH2 0x4BF DUP2 PUSH2 0x482 JUMP JUMPDEST DUP5 ADD SWAP2 POP POP SWAP3 SWAP2 POP POP JUMP JUMPDEST PUSH0 PUSH1 0x40 DUP3 ADD SWAP1 POP PUSH2 0x4DD PUSH0 DUP4 ADD DUP6 PUSH2 0x44B JUMP JUMPDEST DUP2 DUP2 SUB PUSH1 0x20 DUP4 ADD MSTORE PUSH2 0x4EF DUP2 DUP5 PUSH2 0x492 JUMP JUMPDEST SWAP1 POP SWAP4 SWAP3 POP POP POP JUMP JUMPDEST PUSH0 PUSH0 REVERT JUMPDEST PUSH0 PUSH0 REVERT JUMPDEST PUSH32 0x4E487B7100000000000000000000000000000000000000000000000000000000 PUSH0 MSTORE PUSH1 0x41 PUSH1 0x4 MSTORE PUSH1 0x24 PUSH0 REVERT JUMPDEST PUSH2 0x536 DUP3 PUSH2 0x482 JUMP JUMPDEST DUP2 ADD DUP2 DUP2 LT PUSH8 0xFFFFFFFFFFFFFFFF DUP3 GT OR ISZERO PUSH2 0x555 JUMPI PUSH2 0x554 PUSH2 0x500 JUMP JUMPDEST JUMPDEST DUP1 PUSH1 0x40 MSTORE POP POP POP JUMP JUMPDEST PUSH0 PUSH2 0x567 PUSH2 0x3DC JUMP JUMPDEST SWAP1 POP PUSH2 0x573 DUP3 DUP3 PUSH2 0x52D JUMP JUMPDEST SWAP2 SWAP1 POP JUMP JUMPDEST PUSH0 PUSH8 0xFFFFFFFFFFFFFFFF DUP3 GT ISZERO PUSH2 0x592 JUMPI PUSH2 0x591 PUSH2 0x500 JUMP JUMPDEST JUMPDEST PUSH2 0x59B DUP3 PUSH2 0x482 JUMP JUMPDEST SWAP1 POP PUSH1 0x20 DUP2 ADD SWAP1 POP SWAP2 SWAP1 POP JUMP JUMPDEST DUP3 DUP2 DUP4 CALLDATACOPY PUSH0 DUP4 DUP4 ADD MSTORE POP POP POP JUMP JUMPDEST PUSH0 PUSH2 0x5C8 PUSH2 0x5C3 DUP5 PUSH2 0x578 JUMP JUMPDEST PUSH2 0x55E JUMP JUMPDEST SWAP1 POP DUP3 DUP2 MSTORE PUSH1 0x20 DUP2 ADD DUP5 DUP5 DUP5 ADD GT ISZERO PUSH2 0x5E4 JUMPI PUSH2 0x5E3 PUSH2 0x4FC JUMP JUMPDEST JUMPDEST PUSH2 0x5EF DUP5 DUP3 DUP6 PUSH2 0x5A8 JUMP JUMPDEST POP SWAP4 SWAP3 POP POP POP JUMP JUMPDEST PUSH0 DUP3 PUSH1 0x1F DUP4 ADD SLT PUSH2 0x60B JUMPI PUSH2 0x60A PUSH2 0x4F8 JUMP JUMPDEST JUMPDEST DUP2 CALLDATALOAD PUSH2 0x61B DUP5 DUP3 PUSH1 0x20 DUP7 ADD PUSH2 0x5B6 JUMP JUMPDEST SWAP2 POP POP SWAP3 SWAP2 POP POP JUMP JUMPDEST PUSH0 PUSH1 0x20 DUP3 DUP5 SUB SLT ISZERO PUSH2 0x639 JUMPI PUSH2 0x638 PUSH2 0x3E5 JUMP JUMPDEST JUMPDEST PUSH0 DUP3 ADD CALLDATALOAD PUSH8 0xFFFFFFFFFFFFFFFF DUP2 GT ISZERO PUSH2 0x656 JUMPI PUSH2 0x655 PUSH2 0x3E9 JUMP JUMPDEST JUMPDEST PUSH2 0x662 DUP5 DUP3 DUP6 ADD PUSH2 0x5F7 JUMP JUMPDEST SWAP2 POP POP SWAP3 SWAP2 POP POP JUMP JUMPDEST PUSH0 PUSH1 0x20 DUP3 ADD SWAP1 POP PUSH2 0x67E PUSH0 DUP4 ADD DUP5 PUSH2 0x44B JUMP JUMPDEST SWAP3 SWAP2 POP POP JUMP JUMPDEST PUSH0 PUSH0 PUSH1 0x40 DUP4 DUP6 SUB SLT ISZERO PUSH2 0x69A JUMPI PUSH2 0x699 PUSH2 0x3E5 JUMP JUMPDEST JUMPDEST PUSH0 PUSH2 0x6A7 DUP6 DUP3 DUP7 ADD PUSH2 0x40C JUMP JUMPDEST SWAP3 POP POP PUSH1 0x20 PUSH2 0x6B8 DUP6 DUP3 DUP7 ADD PUSH2 0x40C JUMP JUMPDEST SWAP2 POP POP SWAP3 POP SWAP3 SWAP1 POP JUMP JUMPDEST PUSH0 PUSH0 PUSH1 0x40 DUP4 DUP6 SUB SLT ISZERO PUSH2 0x6D8 JUMPI PUSH2 0x6D7 PUSH2 0x3E5 JUMP JUMPDEST JUMPDEST PUSH0 DUP4 ADD CALLDATALOAD PUSH8 0xFFFFFFFFFFFFFFFF DUP2 GT ISZERO PUSH2 0x6F5 JUMPI PUSH2 0x6F4 PUSH2 0x3E9 JUMP JUMPDEST JUMPDEST PUSH2 0x701 DUP6 DUP3 DUP7 ADD PUSH2 0x5F7 JUMP JUMPDEST SWAP3 POP POP PUSH1 0x20 PUSH2 0x712 DUP6 DUP3 DUP7 ADD PUSH2 0x40C JUMP JUMPDEST SWAP2 POP POP SWAP3 POP SWAP3 SWAP1 POP JUMP JUMPDEST PUSH0 PUSH1 0x20 DUP3 ADD SWAP1 POP DUP2 DUP2 SUB PUSH0 DUP4 ADD MSTORE PUSH2 0x734 DUP2 DUP5 PUSH2 0x492 JUMP JUMPDEST SWAP1 POP SWAP3 SWAP2 POP POP JUMP JUMPDEST PUSH32 0x4E487B7100000000000000000000000000000000000000000000000000000000 PUSH0 MSTORE PUSH1 0x22 PUSH1 0x4 MSTORE PUSH1 0x24 PUSH0 REVERT JUMPDEST PUSH0 PUSH1 0x2 DUP3 DIV SWAP1 POP PUSH1 0x1 DUP3 AND DUP1 PUSH2 0x780 JUMPI PUSH1 0x7F DUP3 AND SWAP2 POP JUMPDEST PUSH1 0x20 DUP3 LT DUP2 SUB PUSH2 0x793 JUMPI PUSH2 0x792 PUSH2 0x73C JUMP JUMPDEST JUMPDEST POP SWAP2 SWAP1 POP JUMP JUMPDEST PUSH32 0x4E487B7100000000000000000000000000000000000000000000000000000000 PUSH0 MSTORE PUSH1 0x11 PUSH1 0x4 MSTORE PUSH1 0x24 PUSH0 REVERT JUMPDEST PUSH0 PUSH2 0x7D0 DUP3 PUSH2 0x3ED JUMP JUMPDEST SWAP2 POP PUSH2 0x7DB DUP4 PUSH2 0x3ED JUMP JUMPDEST SWAP3 POP DUP3 DUP3 ADD SWAP1 POP DUP1 DUP3 GT ISZERO PUSH2 0x7F3 JUMPI PUSH2 0x7F2 PUSH2 0x799 JUMP JUMPDEST JUMPDEST SWAP3 SWAP2 POP POP JUMP JUMPDEST PUSH0 DUP2 SWAP1 POP DUP2 PUSH0 MSTORE PUSH1 0x20 PUSH0 KECCAK256 SWAP1 POP SWAP2 SWAP1 POP JUMP JUMPDEST PUSH0 PUSH1 0x20 PUSH1 0x1F DUP4 ADD DIV SWAP1 POP SWAP2 SWAP1 POP JUMP JUMPDEST PUSH0 DUP3 DUP3 SHL SWAP1 POP SWAP3 SWAP2 POP POP JUMP JUMPDEST PUSH0 PUSH1 0x8 DUP4 MUL PUSH2 0x855 PUSH32 0xFFFFFFFFFFFFFFFFFFFFFFFFFFFFFFFFFFFFFFFFFFFFFFFFFFFFFFFFFFFFFFFF DUP3 PUSH2 0x81A JUMP JUMPDEST PUSH2 0x85F DUP7 DUP4 PUSH2 0x81A JUMP JUMPDEST SWAP6 POP DUP1 NOT DUP5 AND SWAP4 POP DUP1 DUP7 AND DUP5 OR SWAP3 POP POP POP SWAP4 SWAP3 POP POP POP JUMP JUMPDEST PUSH0 DUP2 SWAP1 POP SWAP2 SWAP1 POP JUMP JUMPDEST PUSH0 PUSH2 0x89A PUSH2 0x895 PUSH2 0x890 DUP5 PUSH2 0x3ED JUMP JUMPDEST PUSH2 0x877 JUMP JUMPDEST PUSH2 0x3ED JUMP JUMPDEST SWAP1 POP SWAP2 SWAP1 POP JUMP JUMPDEST PUSH0 DUP2 SWAP1 POP SWAP2 SWAP1 POP JUMP JUMPDEST PUSH2 0x8B3 DUP4 PUSH2 0x880 JUMP JUMPDEST PUSH2 0x8C7 PUSH2 0x8BF DUP3 PUSH2 0x8A1 JUMP JUMPDEST DUP5 DUP5 SLOAD PUSH2 0x826 JUMP JUMPDEST DUP3 SSTORE POP POP POP POP JUMP JUMPDEST PUSH0 PUSH0 SWAP1 POP SWAP1 JUMP JUMPDEST PUSH2 0x8DE PUSH2 0x8CF JUMP JUMPDEST PUSH2 0x8E9 DUP2 DUP5 DUP5 PUSH2 0x8AA JUMP JUMPDEST POP POP POP JUMP JUMPDEST JUMPDEST DUP2 DUP2 LT ISZERO PUSH2 0x90C JUMPI PUSH2 0x901 PUSH0 DUP3 PUSH2 0x8D6 JUMP JUMPDEST PUSH1 0x1 DUP2 ADD SWAP1 POP PUSH2 0x8EF JUMP JUMPDEST POP POP JUMP JUMPDEST PUSH1 0x1F DUP3 GT ISZERO PUSH2 0x951 JUMPI PUSH2 0x922 DUP2 PUSH2 0x7F9 JUMP JUMPDEST PUSH2 0x92B DUP5 PUSH2 0x80B JUMP JUMPDEST DUP2 ADD PUSH1 0x20 DUP6 LT ISZERO PUSH2 0x93A JUMPI DUP2 SWAP1 POP JUMPDEST PUSH2 0x94E PUSH2 0x946 DUP6 PUSH2 0x80B JUMP JUMPDEST DUP4 ADD DUP3 PUSH2 0x8EE JUMP JUMPDEST POP POP JUMPDEST POP POP POP JUMP JUMPDEST PUSH0 DUP3 DUP3 SHR SWAP1 POP SWAP3 SWAP2 POP POP JUMP JUMPDEST PUSH0 PUSH2 0x971 PUSH0 NOT DUP5 PUSH1 0x8 MUL PUSH2 0x956 JUMP JUMPDEST NOT DUP1 DUP4 AND SWAP2 POP POP SWAP3 SWAP2 POP POP JUMP JUMPDEST PUSH0 PUSH2 0x989 DUP4 DUP4 PUSH2 0x962 JUMP JUMPDEST SWAP2 POP DUP3 PUSH1 0x2 MUL DUP3 OR SWAP1 POP SWAP3 SWAP2 POP POP JUMP JUMPDEST PUSH2 0x9A2 DUP3 PUSH2 0x45A JUMP JUMPDEST PUSH8 0xFFFFFFFFFFFFFFFF DUP2 GT ISZERO PUSH2 0x9BB JUMPI PUSH2 0x9BA PUSH2 0x500 JUMP JUMPDEST JUMPDEST PUSH2 0x9C5 DUP3 SLOAD PUSH2 0x769 JUMP JUMPDEST PUSH2 0x9D0 DUP3 DUP3 DUP6 PUSH2 0x910 JUMP JUMPDEST PUSH0 PUSH1 0x20 SWAP1 POP PUSH1 0x1F DUP4 GT PUSH1 0x1 DUP2 EQ PUSH2 0xA01 JUMPI PUSH0 DUP5 ISZERO PUSH2 0x9EF JUMPI DUP3 DUP8 ADD MLOAD SWAP1 POP JUMPDEST PUSH2 0x9F9 DUP6 DUP3 PUSH2 0x97E JUMP JUMPDEST DUP7 SSTORE POP PUSH2 0xA60 JUMP JUMPDEST PUSH1 0x1F NOT DUP5 AND PUSH2 0xA0F DUP7 PUSH2 0x7F9 JUMP JUMPDEST PUSH0 JUMPDEST DUP3 DUP2 LT ISZERO PUSH2 0xA36 JUMPI DUP5 DUP10 ADD MLOAD DUP3 SSTORE PUSH1 0x1 DUP3 ADD SWAP2 POP PUSH1 0x20 DUP6 ADD SWAP5 POP PUSH1 0x20 DUP2 ADD SWAP1 POP PUSH2 0xA11 JUMP JUMPDEST DUP7 DUP4 LT ISZERO PUSH2 0xA53 JUMPI DUP5 DUP10 ADD MLOAD PUSH2 0xA4F PUSH1 0x1F DUP10 AND DUP3 PUSH2 0x962 JUMP JUMPDEST DUP4 SSTORE POP JUMPDEST PUSH1 0x1 PUSH1 0x2 DUP9 MUL ADD DUP9 SSTORE POP POP POP JUMPDEST POP POP POP POP POP POP JUMP JUMPDEST PUSH0 DUP2 SWAP1 POP SWAP3 SWAP2 POP POP JUMP JUMPDEST PUSH0 PUSH2 0xA7C DUP3 PUSH2 0x45A JUMP JUMPDEST PUSH2 0xA86 DUP2 DUP6 PUSH2 0xA68 JUMP JUMPDEST SWAP4 POP PUSH2 0xA96 DUP2 DUP6 PUSH1 0x20 DUP7 ADD PUSH2 0x474 JUMP JUMPDEST DUP1 DUP5 ADD SWAP2 POP POP SWAP3 SWAP2 POP POP JUMP JUMPDEST PUSH0 PUSH2 0xAAD DUP3 DUP5 PUSH2 0xA72 JUMP JUMPDEST SWAP2 POP DUP2 SWAP1 POP SWAP3 SWAP2 POP POP JUMP INVALID LOG2 PUSH5 0x6970667358 0x22 SLT KECCAK256 0xB9 0x1E SSTORE 0x23 CHAINID SWAP14 PUSH5 0xE1E47CB49F DUP9 CALLVALUE 0xD7 0xB9 DUP8 0xCC SWAP8 JUMPI ORIGIN EXTCODEHASH 0xC 0xB2 0xBE PUSH32 0x7FFB209939EE64736F6C634300081C0033000000000000000000000000000000 "
				},
				"gasEstimates": {
					"creation": {
						"codeDepositCost": "559600",
						"executionCost": "592",
						"totalCost": "560192"
					},
					"external": {
						"addPerson(string,uint256)": "infinite",
						"getValue(uint256,uint256)": "infinite",
						"listOfPeople(uint256)": "infinite",
						"nameToFavNumber(string)": "infinite",
						"numToName(uint256)": "infinite",
						"reterive()": "2475",
						"store(uint256)": "22559"
					}
				},
				"methodIdentifiers": {
					"addPerson(string,uint256)": "6f760f41",
					"getValue(uint256,uint256)": "6a19e6de",
					"listOfPeople(uint256)": "2ebce631",
					"nameToFavNumber(string)": "43ec8f47",
					"numToName(uint256)": "aa3ff017",
					"reterive()": "9b4e2cdd",
					"store(uint256)": "6057361d"
				}
			},
			"storageLayout": {
				"storage": [
					{
						"astId": 3,
						"contract": "contracts/SimpleStorage.sol:SimpleStorage",
						"label": "myFavoriteNumber",
						"offset": 0,
						"slot": "0",
						"type": "t_uint256"
					},
					{
						"astId": 6,
						"contract": "contracts/SimpleStorage.sol:SimpleStorage",
						"label": "listOfFavoriteNumber",
						"offset": 0,
						"slot": "1",
						"type": "t_array(t_uint256)dyn_storage"
					},
					{
						"astId": 15,
						"contract": "contracts/SimpleStorage.sol:SimpleStorage",
						"label": "listOfPeople",
						"offset": 0,
						"slot": "2",
						"type": "t_array(t_struct(Person)11_storage)dyn_storage"
					},
					{
						"astId": 19,
						"contract": "contracts/SimpleStorage.sol:SimpleStorage",
						"label": "nameToFavNumber",
						"offset": 0,
						"slot": "3",
						"type": "t_mapping(t_string_memory_ptr,t_uint256)"
					},
					{
						"astId": 23,
						"contract": "contracts/SimpleStorage.sol:SimpleStorage",
						"label": "numToName",
						"offset": 0,
						"slot": "4",
						"type": "t_mapping(t_uint256,t_string_storage)"
					}
				],
				"types": {
					"t_array(t_struct(Person)11_storage)dyn_storage": {
						"base": "t_struct(Person)11_storage",
						"encoding": "dynamic_array",
						"label": "struct SimpleStorage.Person[]",
						"numberOfBytes": "32"
					},
					"t_array(t_uint256)dyn_storage": {
						"base": "t_uint256",
						"encoding": "dynamic_array",
						"label": "uint256[]",
						"numberOfBytes": "32"
					},
					"t_mapping(t_string_memory_ptr,t_uint256)": {
						"encoding": "mapping",
						"key": "t_string_memory_ptr",
						"label": "mapping(string => uint256)",
						"numberOfBytes": "32",
						"value": "t_uint256"
					},
					"t_mapping(t_uint256,t_string_storage)": {
						"encoding": "mapping",
						"key": "t_uint256",
						"label": "mapping(uint256 => string)",
						"numberOfBytes": "32",
						"value": "t_string_storage"
					},
					"t_string_memory_ptr": {
						"encoding": "bytes",
						"label": "string",
						"numberOfBytes": "32"
					},
					"t_string_storage": {
						"encoding": "bytes",
						"label": "string",
						"numberOfBytes": "32"
					},
					"t_struct(Person)11_storage": {
						"encoding": "inplace",
						"label": "struct SimpleStorage.Person",
						"members": [
							{
								"astId": 8,
								"contract": "contracts/SimpleStorage.sol:SimpleStorage",
								"label": "favoriteNumber",
								"offset": 0,
								"slot": "0",
								"type": "t_uint256"
							},
							{
								"astId": 10,
								"contract": "contracts/SimpleStorage.sol:SimpleStorage",
								"label": "name",
								"offset": 0,
								"slot": "1",
								"type": "t_string_storage"
							}
						],
						"numberOfBytes": "64"
					},
					"t_uint256": {
						"encoding": "inplace",
						"label": "uint256",
						"numberOfBytes": "32"
					}
				}
			},
			"userdoc": {
				"kind": "user",
				"methods": {},
				"version": 1
			}
		}
	}
}